S01A000054617265615265637570657261746F7269612E73726563C7
S11300000C9434000C9446000C9446000C94460066
S11300100C9446000C9446000C9446000C947D010C
S11300200C9446000C9446000C9446000C94460034
S11300300C9446000C9446000C9446000C94460024
S11300400C9448000C9446000C9446000C94460012
S11300500C9446000C9446000C9446000C94460004
S11300600C9446000C94460011241FBECFEFD8E038
S1130070DEBFCDBF21E0A0E0B1E001C01D92A43BF2
S1130080B207E1F70E9420020C9482020C94000053
S11300901F920F920FB60F9211242F933F938F93B9
S11300A09F93AF93BF938091050190910601A09116
S11300B00701B09108013091040123E0230F2D378B
S11300C020F40196A11DB11D05C026E8230F029658
S11300D0A11DB11D20930401809305019093060195
S11300E0A0930701B0930801809100019091010150
S11300F0A0910201B09103010196A11DB11D80934D
S1130100000190930101A0930201B0930301BF91F8
S1130110AF919F918F913F912F910F900FBE0F90B0
S11301201F9018952FB7F8948091090190910A01B6
S1130130892B19F422239CF408C080910901909121
S11301400A01892B91F0222384F080910901909176
S11301500A01019690930A01809309010895809100
S1130160090190910A01892B81F708952FB7F8941A
S11301708091090190910A01181619068CF4809156
S1130180090190910A01019790930A018093090152
S11301908091090190910A01892B29F4789408959A
S11301A022230CF4789408950E94920080910B010C
S11301B0882311F10E94B600E0910D01F0E0EE0FEA
S11301C0FF1FE25FFE4F0190F081E02D09950E9430
S11301D0920080910D0190E001968F7090789923A0
S11301E024F40197806F9F6F019680930D01809195
S11301F00B01815080930B010E94B60081E00895A9
S1130200CF93DF93EC010E94920020910B012031E7
S1130210D0F480910C0190E0FC01EE0FFF1FE25F2F
S1130220FE4FD183C08301968F709078992324F474
S11302300197806F9F6F019680930C012F5F20932D
S11302400B01C1E001C0C0E00E94B6008C2FDF9119
S1130250CF91089595B182E0892785B9089595B124
S113026084E0892785B9089595B188E0892785B9FF
S11302700895219A229A239A8AE291E00E94DE014B
S113028069E170E00E9400028FE291E00E94DE01C9
S113029062E370E00E94000284E391E00E94DE01C8
S11302A064E670E00E94000208950E94D40008955C
S11302B09C018091300181111BC0F89481E08093EE
S11302C030018CE98093B300A0EBB0E01C92E1EB29
S11302D0F0E010829C9192609C93A0E7B0E09C9126
S11302E092609C931092B20090819760908378946E
S11302F030932F0120932E0108951F920F920FB671
S11303000F9211242F933F934F935F936F937F9397
S11303108F939F93AF93BF93EF93FF931092B20089
S113032080912E0190912F010E940001FF91EF9185
S1130330BF91AF919F918F917F916F915F914F91F9
S11303403F912F910F900FBE0F901F901895109210
S1130350310120E030E0F901EE5CFE4F8081813014
S113036029F5F901EE0FFF1FEE0FFF1FEE0FFF1F20
S1130370E21BF30BEE5BFE4F858196810196608153
S113038071810E946E0296838583892B79F4F90129
S1130390EE0FFF1FEE0FFF1FEE0FFF1FE21BF30B0D
S11303A0EE5BFE4F828193810E9400012091310116
S11303B02F5F20933101203168F208959C019091C0
S11303C0B201903160F487E0989FF0011124EE5B54
S11303D0FE4F3383228394839F5F9093B2012091D5
S11303E0B20130E021503109C901880F991F880FEB
S11303F0991F880F991F821B930B8E5B9E4F089544
S11304000F931F93CF93DF93EC018B018091B30182
S1130410811107C087EA91E00E94580181E080932E
S1130420B301EC81F0E0EE5CFE4F81E08083198340
S113043008831E821D82DF91CF911F910F91089531
S1130440789484B5826084BD84B5816084BD85B5AB
S1130450826085BD85B5816085BD80916E008160B7
S113046080936E001092810080918100826080935D
S1130470810080918100816080938100809180005F
S11304808160809380008091B10084608093B1008A
S11304908091B00081608093B00080917A00846084
S11304A080937A0080917A00826080937A008091B0
S11304B07A00816080937A0080917A0080688093CA
S11304C07A001092C1000E943901C0E0D0E00E947D
S11304D055012097E1F30E940000F9CFAA1BBB1B32
S11304E051E107C0AA1FBB1FA617B70710F0A61B30
S11304F0B70B881F991F5A95A9F780959095BC0151
S10B0500CD010895F894FFCF2A
S9030000FC
