S01700004763634170706C69636174696F6E322E737265635A
S11300000C945E000C9486000C9486000C9486007C
S11300100C9486000C9486000C9486000C94860044
S11300200C9486000C94E9050C9486000C948600CC
S11300300C9486000C9486000C9486000C94860024
S11300400C949D060C9486000C9409090C943B09AD
S11300500C9486000C9442010C9486000C94860047
S11300600C9486000C948600000000080002010035
S1130070000304070000000000000000010204085F
S113008010204080010204081020010204081020FE
S1130090040404040404040402020202020203032A
S11300A00303030300000000250028002B000000C8
S11300B00000240027002A0026066B0911241FBE15
S11300C0CFEFD8E0DEBFCDBF11E0A0E0B1E0E4E0C7
S11300D0F6E102C005900D92AA38B107D9F723E0E2
S11300E0AAE8B1E001C01D92A639B207E1F710E019
S11300F0CEE5D0E004C02197FE010E94FA0ACC3577
S1130100D107C9F70E94AF090C94000B0C940000AE
S11301108091D00190E0FC01EE0FFF1F880F991F22
S1130120880F991F880F991FE80FF91FED56FE4F8E
S11301300280F381E02D80918B0190918C010995CF
S11301400895FC018081918106970CF095C08091FF
S1130150D20181116DC0ACE7B0E08C918F7D8C939E
S11301608C9180648C938C91807F8C93808191811D
S113017083309105D1F034F48130910551F0029728
S113018071F02AC085309105E1F0ACF00697F9F0E2
S113019023C0ACE7B0E08C9181608C931DC0ACE7C8
S11301A0B0E08C9182608C9317C0ACE7B0E08C9186
S11301B083608C9311C0ACE7B0E08C9184608C9325
S11301C00BC0ACE7B0E08C9185608C9305C0ACE7C4
S11301D0B0E08C9186608C93AAE7B0E08C91806843
S11301E08C938C918F7D8C938C9186608C938C9165
S11301F088608C9378948C9180648C93ADE8B1E0A2
S11302001C9211961C92119712961C921297139697
S11302101C92139714961C92149715961C9286E0C0
S113022080938A0181E08093D20180818093D101FF
S113023080819181DC01A357BE4F2C9121111FC0F5
S1130240DC01A357BE4F21E02C9380819181DC0116
S1130250AA0FBB1F880F991F880F991F880F991F1A
S1130260A80FB91FAD56BE4F8AE001900D928A9532
S1130270E1F781E090E0089580E090E0089580E067
S113028090E008951F920F920FB60F9211242F93AE
S11302903F934F935F936F937F938F939F93AF930A
S11302A0BF93CF93EF93FF938091CF01843608F4EB
S11302B07AC0809178009091790090938C0180931A
S11302C08B018091D1018093D00188E890E00E9455
S11302D06B0281E080938A012091D10130E0C90151
S11302E0019666E070E00E94B00A582FFC01E357C3
S11302F0FE4F8081813009F05FC00EC0482FC901D4
S1130300BF010E94B00A582FDC01A357BE4F8C9145
S1130310813029F4C0938A015093D10109C081E04E
S1130320840F2F5F3F4FC42F883041F740938A01D9
S1130330ECE7F0E08081807F80838091D10183307D
S1130340C1F028F4813049F0823069F029C0853049
S1130350E1F0A8F08630F9F023C0ECE7F0E080810A
S1130360816080831DC0ECE7F0E08081826080833F
S113037017C0ECE7F0E080818360808311C0ECE774
S1130380F0E08081846080830BC0ECE7F0E0808142
S11303908560808305C0ECE7F0E08081866080831F
S11303A01092CF0103C08F5F8093CF01EAE7F0E0A2
S11303B080818064808307C02E5F3F4F43E0C2E0AA
S11303C0E6E0F0E09CCFFF91EF91CF91BF91AF9128
S11303D09F918F917F916F915F914F913F912F9159
S11303E00F900FBE0F901F9018952FB7F89480911F
S11303F0D3019091D401892B19F422239CF408C0D1
S11304008091D3019091D401892B91F0222384F01F
S11304108091D3019091D40101969093D40180935B
S1130420D30108958091D3019091D401892B81F750
S113043008952FB7F8948091D3019091D4011816A0
S113044019068CF48091D3019091D4010197909373
S1130450D4018093D3018091D3019091D401892B4D
S113046029F47894089522230CF478940895109232
S1130470D7011092D6011092D50181E008950E940F
S1130480F5018091D501882311F10E941902E091B0
S1130490D701F0E0EE0FFF1FE852FE4F0190F0810C
S11304A0E02D09950E94F5018091D70190E0019615
S11304B08F709078992324F40197806F9F6F019631
S11304C08093D7018091D50181508093D5010E94FA
S11304D0190281E00895CF93DF93EC010E94F501A6
S11304E02091D5012031D0F48091D60190E0FC0117
S11304F0EE0FFF1FE852FE4FD183C08301968F7029
S11305009078992324F40197806F9F6F01968093CC
S1130510D6012F5F2093D501C1E001C0C0E00E9445
S113052019028C2FDF91CF91089580E090E0089517
S11305300895CF93DF93EC0160E08E810E948E07D3
S113054081E090E00E94E70661E08E810E948E07C0
S113055081E090E00E94E70660E08E810E948E07B1
S113056084E690E00E94E706DF91CF910895CF9250
S1130570DF92EF92FF920F931F93CF93DF936C015F
S11305808C01095F1F4FC0E0D0E0E62EF12CB701CB
S11305900C2E02C0759567950A94E2F76170F80114
S11305A081918F010E948E072196C430D10579F77D
S11305B0C6010E949902DF91CF911F910F91FF9084
S11305C0EF90DF90CF900895CF92DF92EF92FF9259
S11305D00F931F93CF93DF936C018C01095F1F4F1F
S11305E0C0E0D0E0E62EF12CB7010C2E02C07595C8
S11305F067950A94E2F76170F80181918F010E9476
S11306008E072196C830D10579F7C6010E94990258
S1130610DF91CF911F910F91FF90EF90DF90CF90DA
S113062008951F93CF93DF93EC01162F642F8C81D1
S11306300E948E078D818F3F19F060E00E948E0723
S11306408F8584FF05C0612FCE010E94E40211C092
S1130650612F70E0759567957595679575956795A4
S113066075956795CE010E94B702612FCE010E9455
S1130670B702DF91CF911F91089540E061E00E949D
S1130680110380ED97E00E94E7060895FC014430D1
S113069008F043E08389481710F04FEF480FDF015B
S11306A0A40FB11D54969C91690F606840E0CF017E
S11306B00E9411030895FC016089262F2460208B79
S11306C06C6040E00E9411030895AF92BF92CF92F4
S11306D0DF92EF92FF920F931F93CF93DF93EC017E
S11306E0423018F08F8588608F874B8B1C8A80E49A
S11306F08D8B6E8B70E0605C7F4F6F8B222329F0B3
S1130700413019F48F8584608F8761E08C810E9469
S113071055078D818F3F19F061E00E94550761E014
S11307208E810E9455077E0187E0E80EF11C00E0EF
S113073010E06894AA24A3F8B12C6894CC24C2F8DD
S1130740D12C8F8584FD03C08C2D9D2D02C08A2D54
S11307509B2D081719074CF461E0F70181917F0183
S11307600E9455070F5F1F4FECCF80E593EC0E946A
S1130770E70660E08C810E948E0760E08E810E9413
S11307808E078D818F3F19F060E00E948E076F8580
S113079064FD1DC063E0CE010E94B70284E991E1CB
S11307A00E94E70663E0CE010E94B70284E991E16A
S11307B00E94E70663E0CE010E94B70286E990E05A
S11307C00E94E70662E0CE010E94B70219C060628F
S11307D040E0CE010E94110384E991E10E94E70602
S11307E06F85606240E0CE010E94110386E990E0CB
S11307F00E94E7066F85606240E0CE010E9411030B
S11308006F85606240E0CE010E94110384E0888B12
S1130810CE010E945B03CE010E943D0382E0898BDE
S113082040E066E0CE010E941103DF91CF911F9159
S11308300F91FF90EF90DF90CF90BF90AF9008950D
S1130840CF92EF920F93FC011382128285E091E024
S11308509183808364838FEF858346832783008716
S1130860E186C2861386148615861686178620E0CE
S113087041E060E1CF010E9465030F91EF90CF90BA
S1130880089541E00E94110381E090E008952091D1
S11308901102022E000C330BF901EE0FFF1FEA5E6A
S11308A0FD4F082E000C990B91838083C90101969A
S11308B064E670E00E94B00A8093110280911202F3
S11308C085361CF48F5F8093120208958091DE02B6
S11308D08093150208951092130240911202141687
S11308E0ECF4642F042E000C770B1616170684F410
S11308F0E6E1F2E0440F550B4A5E5D4F80E090E084
S113090021913191820F931FE417F507C9F702C0B3
S113091080E090E00E94B00A609313020895609111
S113092011021616BCF440911402E6E1F2E0660FDF
S1130930770B6A5E7D4F81919191242F042E000CD8
S1130940330B2817390708F4482FE617F70799F7E8
S1130950409314020895609111021616BCF440915C
S11309600001E6E1F2E0660F770B6A5E7D4F81914C
S11309709191242F042E000C330B8217930708F453
S1130980482FE617F70799F74093000108958093DD
S1130990DE029093DF020E9447040E9466040E94D4
S11309A0AB040E948F040E946B04089540E060E051
S11309B088EF91E00E9446036DE071E088EF91E0DA
S11309C00E94FC0941E061E088EF91E00E94460347
S11309D060911502062E000C770B4AE050E088EF78
S11309E091E00E94A80A089540E060E088EF91E059
S11309F00E94460360E271E088EF91E00E94FC09E6
S1130A0041E061E088EF91E00E94460360911302A7
S1130A10062E000C770B4AE050E088EF91E00E942C
S1130A20A80A089540E060E088EF91E00E94460340
S1130A3069E371E088EF91E00E94FC0941E061E024
S1130A4088EF91E00E94460360911402062E000C88
S1130A50770B4AE050E088EF91E00E94A80A0895DD
S1130A6040E060E088EF91E00E9446036AE471E0B0
S1130A7088EF91E00E94FC0941E061E088EF91E099
S1130A800E94460360910001062E000C770B4AE099
S1130A9050E088EF91E00E94A80A0895CF93DF9375
S1130AA0C9EFD2E0E881F9810190F081E02D61E69F
S1130AB0CE010995E881F9810190F081E02D6091E2
S1130AC01502CE010995E881F9810190F081E02DAC
S1130AD06DE4CE010995E881F9810190F081E02D62
S1130AE060911402CE010995E881F9810190F081A9
S1130AF0E02D6DE6CE010995E881F9810190F08140
S1130B00E02D60910001CE010995E881F981019001
S1130B10F081E02D60E7CE010995E881F98101902B
S1130B20F081E02D60911302CE010995DF91CF9100
S1130B3008950E94370220E042E060E188EF91E0EE
S1130B400E94650387EC94E00E94870640E060E021
S1130B5088EF91E00E9446036DE571E088EF91E033
S1130B600E94FC0926E040E855E260E070E089EF6D
S1130B7092E00E94A708E6E1F2E08EED92E0119285
S1130B801192E817F907D9F740E060E088EF91E0A7
S1130B900E9446036AE671E088EF91E00E94FC0936
S1130BA0F894A0EBB0E01C92E1EBF0E010828C91A1
S1130BB082608C93A0E7B0E08C9181608C9310925A
S1130BC0B200808187608083789408950E943F02F8
S1130BD008951F920F920FB60F9211242F933F93F3
S1130BE04F935F936F937F938F939F93AF93BF9331
S1130BF0EF93FF931092B2008091100290E001965F
S1130C0069E070E00E94B00A8093100281110DC067
S1130C108091E0029091E10201969093E102809329
S1130C20E00282E696E00E946B02FF91EF91BF9191
S1130C30AF919F918F917F916F915F914F913F9170
S1130C402F910F900FBE0F901F901895CF92EF9297
S1130C500F930F2EF7E0CF2EF02D0F2EF6E0EF2E90
S1130C60F02D05E024E049E068E088EF91E00E947F
S1130C7020040F91EF90CF90089589EF92E00E94A5
S1130C80C40718161906ECF489EF92E00E94DD07F8
S1130C9081369105A1F024F48D34910569F008950D
S1130CA08D36910531F08037910559F40E94F40492
S1130CB008950E94300508950E94120508950E9427
S1130CC0D60408950E943D060E944E050895409161
S1130CD0EE025091EF0224EF31E0429FC001439FA6
S1130CE0900D529F900D1124E091E202F091E302E5
S1130CF0892F8695869590E0099508959093EF0243
S1130D008093EE0287E696E00E946B02089590932A
S1130D10E3028093E202E4EEF2E081E090E091836A
S1130D208083158214828EE796E093838283CF01B9
S1130D300E94A10081E090E008951F920F920FB6E7
S1130D400F9211242F933F938F939F93AF93BF934D
S1130D508091F1029091F202A091F302B091F40219
S1130D603091F00223E0230F2D3720F40196A11DCA
S1130D70B11D05C026E8230F0296A11DB11D2093C5
S1130D80F0028093F1029093F202A093F302B093E5
S1130D90F4028091F5029091F602A091F702B091CD
S1130DA0F8020196A11DB11D8093F5029093F602FD
S1130DB0A093F702B093F802BF91AF919F918F91E6
S1130DC03F912F910F900FBE0F901F901895019790
S1130DD039F0880F991F880F991F02970197F1F72F
S1130DE00895789484B5826084BD84B5816084BD9F
S1130DF085B5826085BD85B5816085BDEEE6F0E090
S1130E00808181608083E1E8F0E0108280818260EB
S1130E108083808181608083E0E8F0E0808181606C
S1130E208083E1EBF0E0808184608083E0EBF0E09C
S1130E30808181608083EAE7F0E080818460808340
S1130E4080818260808380818160808380818068EA
S1130E5080831092C1000895833081F028F481309A
S1130E6099F08230A1F008958730A9F08830B9F064
S1130E708430D1F4809180008F7D03C08091800004
S1130E808F7780938000089584B58F7702C084B5EE
S1130E908F7D84BD08958091B0008F7703C08091C9
S1130EA0B0008F7D8093B0000895CF93DF9390E0DE
S1130EB0FC01E458FF4F2491FC01E057FF4F84915B
S1130EC0882349F190E0880F991FFC01E255FF4FF8
S1130ED0A591B4918C559F4FFC01C591D4919FB7B6
S1130EE0611108C0F8948C91209582238C93888199
S1130EF082230AC0623051F4F8948C91322F3095D9
S1130F0083238C938881822B888304C0F8948C91EA
S1130F10822B8C939FBFDF91CF9108950F931F93E2
S1130F20CF93DF931F92CDB7DEB7282F30E0F901BE
S1130F30E859FF4F8491F901E458FF4F1491F901E6
S1130F40E057FF4F04910023C9F0882321F06983FF
S1130F500E942C076981E02FF0E0EE0FFF1FEC5593
S1130F60FF4FA591B4919FB7F8948C91611103C080
S1130F701095812301C0812B8C939FBF0F90DF912B
S1130F80CF911F910F910895FC01818D228D90E0E6
S1130F90805C9F4F821B91098F7399270895FC01F0
S1130FA0918D828D981731F0828DE80FF11D858D1A
S1130FB090E008958FEF9FEF0895FC01918D828D4D
S1130FC0981761F0828DDF01A80FB11D5D968C9199
S1130FD0928D9F5F9F73928F90E008958FEF9FEFA4
S1130FE0089581E699E0892B49F080E090E0892B0F
S1130FF029F00E94610981110C9400000895FC01FC
S1131000848DDF01A80FB11DA35ABF4F2C91848D8D
S113101090E001968F739927848FA689B7892C93C2
S1131020A089B1898C9180648C93938D848D98135D
S113103006C00288F389E02D80818F7D8083089526
S1131040CF93DF93EC01888D8823C9F0EA89FB896B
S1131050808185FD05C0A889B9898C9186FD0FC062
S11310600FB607FCF5CF808185FFF2CFA889B98937
S11310708C9185FFEDCFCE010E94FF07E7CFDF9172
S1131080CF910895CF92DF92FF920F931F93CF9346
S1131090DF931F92CDB7DEB76C01DC015B969C91A8
S11310A05B975C968C915C97981307C05096ED9172
S11310B0FC915197808185FD32C0F601038D10E0CB
S11310C00F5F1F4F0F731127F02EF601848DF81256
S11310D011C00FB607FCF9CFD6015096ED91FC91E3
S11310E05197808185FFF1CFC60169830E94FF0774
S11310F06981EBCF838DE80FF11DE35AFF4F6083C5
S1131100D6015B960C935B975296ED91FC915397A5
S113111080818062808381E058968C930DC0D601D3
S11311205696ED91FC91579760835096ED91FC9102
S1131130519780818064808381E090E00F90DF91FB
S1131140CF911F910F91FF90DF90CF900895BF92A0
S1131150CF92DF92EF92FF92CF93DF93EC016A017B
S11311607B01B22EE889F98982E08083411581EE02
S1131170580761057105A1F060E079E08DE390E026
S1131180A70196010E94C40A21503109410951095D
S11311905695479537952795211580E1380798F09E
S11311A0E889F989108260E874E88EE190E0A7018B
S11311B096010E94C40A21503109410951095695EA
S11311C0479537952795EC85FD853083EE85FF851A
S11311D02083188EEC89FD89B082EA89FB8980819D
S11311E080618083EA89FB89808188608083EA89C1
S11311F0FB89808180688083EA89FB8980818F7D77
S11312008083DF91CF91FF90EF90DF90CF90BF90DC
S113121008951F920F920FB60F9211242F938F935C
S11312209F93EF93FF93E0910903F0910A03808168
S1131230E0910F03F091100382FD12C09081809120
S113124012038F5F8F7320911303821751F0E09183
S11312501203F0E0E750FD4F958F8093120301C015
S11312608081FF91EF919F918F912F910F900FBEED
S11312700F901F9018951F920F920FB60F92112482
S11312802F933F934F935F936F937F938F939F938A
S1131290AF93BF93EF93FF9389EF92E00E94FF0710
S11312A0FF91EF91BF91AF919F918F917F916F913A
S11312B05F914F913F912F910F900FBE0F901F9010
S11312C0189589EF92E00E94C40721E0892B09F464
S11312D020E0822F08951092FC021092FB0288EE07
S11312E093E0A0E0B0E08093FD029093FE02A0930F
S11312F0FF02B09300038DE791E09093FA0280938C
S1131300F90285EC90E0909306038093050384EC46
S113131090E0909308038093070380EC90E090930F
S11313200A038093090381EC90E090930C0380936B
S11313300B0382EC90E090930E0380930D0386ECF4
S113134090E09093100380930F0310921203109275
S113135013031092140310921503089508950E9424
S1131360F1060E94AE090E949905C1EFD7E00E94E0
S1131370E6052097E1F30E94F107F9CFCF92DF92BF
S1131380EF92FF920F931F93CF93DF936C017A0137
S1131390EB01E60EF71E00E010E0CE15DF0561F06C
S11313A06991D601ED91FC910190F081E02DC60187
S11313B00995080F191FF1CFC801DF91CF911F9133
S11313C00F91FF90EF90DF90CF9008956115710514
S11313D081F0DB010D900020E9F7AD014150510986
S11313E0461B570BDC01ED91FC910280F381E02D4B
S11313F0099480E090E008950C94E609DC01ED91F5
S1131400FC910190F081E02D09948F929F92AF920C
S1131410BF92CF92DF92EF92FF920F931F93CF93DD
S1131420DF93CDB7DEB7A1970FB6F894DEBF0FBE3A
S1131430CDBF7C01C42EE52FCB01D22E19A221E011
S11314402D1510F02AE0D22E8E010F5D1F4F8D2C2A
S1131450912CA12CB12C6C2D7E2FA50194010E94FE
S1131460C40A8C2DD29E80191124015011098A308E
S113147014F4805D01C0895CF80180832115310575
S11314804105510521F0C22EE32FCA01E4CFB80172
S1131490C7010E94E609A1960FB6F894DEBF0FBEFD
S11314A0CDBFDF91CF911F910F91FF90EF90DF900F
S11314B0CF90BF90AF909F908F900895CF92DF927E
S11314C0EF92FF920F931F93CF93DF93EC016A0186
S11314D07B012115310579F4E881F9810190F081CE
S11314E0E02D642FDF91CF911F910F91FF90EF902A
S11314F0DF90CF9009942A303105E9F477FF1AC0C0
S11315006DE20E94FE098C0144275527BA014C194B
S11315105D096E097F092AE0CE010E94050A800F49
S1131520911FDF91CF911F910F91FF90EF90DF906A
S1131530CF9008952AE0B701A601CE01DF91CF91A3
S11315401F910F91FF90EF90DF90CF900C94050ABC
S11315509A01AB01662757FD6095762F0C945E0ABD
S113156097FB072E16F4009407D077FD09D00E944C
S1131570E60A07FC05D03EF4909581959F4F0895A7
S1131580709561957F4F0895A1E21A2EAA1BBB1B8B
S1131590FD010DC0AA1FBB1FEE1FFF1FA217B3073B
S11315A0E407F50720F0A21BB30BE40BF50B661F51
S11315B0771F881F991F1A9469F760957095809515
S11315C090959B01AC01BD01CF010895AA1BBB1BE3
S11315D051E107C0AA1FBB1FA617B70710F0A61B2F
S11315E0B70B881F991F5A95A9F780959095BC0150
S11315F0CD010895EE0FFF1F0590F491E02D09949D
S1071600F894FFCF88
S1131604C8000000004104BE099502980254656DA7
S1131614702041637475616C2020202020202000F8
S113162454656D702050726F6D6564696F2020205D
S113163420202020202020200054656D70204D613E
S113164478696D6120202020200054656D70204D40
S1131654696E696D61202020202020200020202034
S113166420202020202020202000686F6C202020AF
S1131674202020202020202000000000004208BE5A
S10D168409C407DD07CF07200800A2
S9030000FC
