:100000000C945E000C9486000C9486000C94860080
:100010000C9486000C9486000C9486000C94860048
:100020000C9486000C94AB090C9486000C9486000A
:100030000C9486000C9486000C9486000C94860028
:100040000C9488020C9486000C944B030C942503AA
:100050000C9486000C9414050C9486000C94860075
:100060000C9486000C9486000000000024002700F9
:100070002A0000000000250028002B0004040404CE
:100080000404040402020202020203030303030342
:10009000010204081020408001020408102001021F
:1000A00004081020000000080002010000030407FB
:1000B0000000000000000000E8097F0A11241FBEB4
:1000C000CFEFD8E0DEBFCDBF11E0A0E0B1E0E6E0C9
:1000D000F6E102C005900D92A03AB107D9F723E0EE
:1000E000A0EAB1E001C01D92AC3AB207E1F710E01E
:1000F000CEE5D0E004C02197FE010E94D40ACC35A1
:10010000D107C9F70E94350A0C94010B0C9400002A
:10011000CF92DF92EF92FF920F931F93CF93DF93D3
:100120006C017A018B01C0E0D0E0CE15DF0581F0D3
:10013000D8016D918D01D601ED91FC910190F08176
:10014000E02DC6010995892B11F02196EECF7E0195
:10015000C701DF91CF911F910F91FF90EF90DF903A
:10016000CF900895FC01538D448D252F30E0842FCE
:1001700090E0821B930B541710F0CF9608950197CF
:100180000895FC01918D828D981761F0828DDF01B9
:10019000A80FB11D5D968C91928D9F5F9F73928F7A
:1001A00090E008958FEF9FEF0895FC01918D828D6F
:1001B000981731F0828DE80FF11D858D90E008953C
:1001C0008FEF9FEF0895FC01918D228D892F90E094
:1001D000805C9F4F821B91098F739927089580EA55
:1001E00091E00E94E30021E0892B09F420E0822FB6
:1001F0000895FC01848DDF01A80FB11DA35ABF4FE4
:100200002C91848D90E001968F739927848FA68915
:10021000B7892C93A089B1898C91837080648C9369
:10022000938D848D981306C00288F389E02D808118
:100230008F7D80830895EF92FF920F931F93CF934A
:10024000DF93EC0181E0888F9B8D8C8D981305C026
:10025000E889F989808185FD26C0F62E0B8D10E096
:100260000F5F1F4F0F731127E02E8C8DE8120CC00B
:100270000FB607FCFACFE889F989808185FFF5CFB1
:10028000CE010E94F900F1CF8B8DFE01E80FF11D28
:10029000E35AFF4FF0829FB7F8940B8FEA89FB89EE
:1002A000808180620AC09FB7F894EE89FF896083DD
:1002B000E889F98980818370806480839FBF81E0B1
:1002C00090E0DF91CF911F910F91FF90EF900895F3
:1002D000CF93DF93EC01888D8823C9F0EA89FB89ED
:1002E000808185FD05C0A889B9898C9186FD0FC0E4
:1002F0000FB607FCF5CF808185FFF2CFA889B989B9
:100300008C9185FFEDCFCE010E94F900E7CFDF9100
:10031000CF91089580E090E0892B29F00E94EF00B2
:1003200081110C94000008956115710579F0FB01AD
:1003300001900020E9F73197AF01461B570BDC0114
:10034000ED91FC910280F381E02D099480E090E032
:1003500008958F929F92AF92BF92EF92FF920F9368
:100360001F93CF93DF93CDB7DEB7A1970FB6F89465
:10037000DEBF0FBECDBF7C01FA01CB0119A2223036
:1003800008F42AE08E010F5D1F4F822E912CA12CC4
:10039000B12CBF01A50194010E94DA0AF901CA013A
:1003A000015011096A3014F4605D01C0695CD80124
:1003B0006C93232B242B252B61F7B801C7010E94D6
:1003C0009401A1960FB6F894DEBF0FBECDBFDF91AA
:1003D000CF911F910F91FF90EF90BF90AF909F90A2
:1003E0008F9008950E94FC0A90E0FC01EC55FF4FAD
:1003F0002491FC01E057FF4F3491FC01E458FF4F7A
:10040000E491EE2309F43CC0222339F1233091F02A
:1004100038F42130A9F0223001F584B58F7D12C067
:10042000273091F02830A1F02430B9F48091800079
:100430008F7D03C0809180008F77809380000DC0F6
:1004400084B58F7784BD09C08091B0008F7703C0D9
:100450008091B0008F7D8093B000F0E0EE0FFF1F21
:10046000EE58FF4FA591B4919FB7F894611104C065
:100470008C913095382302C0EC913E2B3C939FBF6A
:100480000895CF93DF9390E0FC01E057FF4F249154
:10049000FC01E458FF4F8491882361F190E0880FBC
:1004A000991FFC01E859FF4FC591D491FC01EE580A
:1004B000FF4FA591B491611109C09FB7F89488814D
:1004C000209582238883EC912E230BC0623061F447
:1004D0009FB7F8948881322F309583238883EC91DD
:1004E0002E2B2C939FBF06C08FB7F894E8812E2B3C
:1004F00028838FBFDF91CF9108958230910538F026
:10050000880F991F880F991F05970197F1F7089594
:100510001F920F920FB60F9211242F933F938F9338
:100520009F93AF93BF938091420290914302A09119
:100530004402B09145023091410223E0230F2D3750
:1005400020F40196A11DB11D05C026E8230F0296D7
:10055000A11DB11D2093410280934202909343025A
:10056000A0934402B093450280913D0290913E02D7
:10057000A0913F02B09140020196A11DB11D809350
:100580003D0290933E02A0933F02B0934002BF9180
:10059000AF919F918F913F912F910F900FBE0F9030
:1005A0001F901895CF92DF92EF92FF920F931F93B7
:1005B000CF93DF934115510579F4DC01ED91FC9166
:1005C0000190F081E02DDF91CF911F910F91FF906D
:1005D000EF90DF90CF9009946B01770FEE08FF0842
:1005E0004A30510519F5F7FE1FC0EC01E881F98189
:1005F0000190F081E02D6DE209958C01442755278B
:10060000BA014C195D096E097F092AE0CE010E94EA
:10061000A901800F911FDF91CF911F910F91FF9042
:10062000EF90DF90CF9008952AE001C0242FB7010A
:10063000A601DF91CF911F910F91FF90EF90DF9076
:10064000CF900C94A9010C9494011F920F920FB6B5
:100650000F9211242F933F934F935F936F937F9348
:100660008F939F93AF93BF93EF93FF9380EA91E0B3
:100670000E94F900FF91EF91BF91AF919F918F91EF
:100680007F916F915F914F913F912F910F900FBE8E
:100690000F901F9018951F920F920FB60F92112472
:1006A0002F938F939F93EF93FF93E091B001F0917D
:1006B000B1018081E091B601F091B70182FD12C0D5
:1006C00090818091B9018F5F8F732091BA01821759
:1006D00051F0E091B901F0E0E056FE4F958F809324
:1006E000B90101C08081FF91EF919F918F912F916E
:1006F0000F900FBE0F901F901895CF92DF92EF9240
:10070000FF921F93CF93DF93EC016A017B01122FBD
:10071000E889F98982E080834115514E61057105B0
:10072000B1F060E079E08DE390E0A70196010E94CE
:10073000DA0ADA01C9010197A109B109B695A795AD
:10074000979587959C01211580E13807A8F0E889E5
:10075000F989108260E874E88EE190E0A7019601C3
:100760000E94DA0ADA01C9010197A109B109B69517
:10077000A795979587959C01EC85FD853083EE853F
:10078000FF852083188EEC89FD891083EA89FB8917
:10079000808180618083EA89FB8980818860808391
:1007A000EA89FB89808180688083EA89FB8980816E
:1007B0008F7D8083DF91CF911F91FF90EF90DF902D
:1007C000CF9008952FB7F8948091460290914702F8
:1007D000892B19F422239CF408C080914602909141
:1007E0004702892B91F0222384F080914602909158
:1007F00047020196909347028093460208958091A4
:10080000460290914702892B81F708952FB7F894FB
:100810008091460290914702181619068CF4809137
:1008200046029091470201979093470280934602B7
:100830008091460290914702892B29F4789408957B
:1008400022230CF47894089540915402509155025B
:1008500024EF31E0429FC001439F900D529F900DC5
:100860001124E0914802F0914902892F86958695DE
:1008700090E009950895909355028093540284E284
:1008800094E00E94FB0508959093490280934802EA
:10089000EAE4F2E081E090E09183808315821482A3
:1008A0008BE394E093838283CF010E94730481E001
:1008B00090E0089580919C0290E0FC01EE0FFF1FF4
:1008C000880F991F880F991F880F991FE80FF91F2C
:1008D000E15AFD4F0280F381E02D80915702909103
:1008E000580209950895FC018081918106970CF0CA
:1008F00095C080919E0281116DC0ACE7B0E08C91F3
:100900008F7D8C938C9180648C938C91807F8C9361
:100910008081918183309105D1F034F4813091054B
:1009200051F0029771F02AC085309105E1F0ACF0EA
:100930000697F9F023C0ACE7B0E08C9181608C930E
:100940001DC0ACE7B0E08C9182608C9317C0ACE71F
:10095000B0E08C9183608C9311C0ACE7B0E08C91D7
:1009600084608C930BC0ACE7B0E08C9185608C9375
:1009700005C0ACE7B0E08C9186608C93AAE7B0E04C
:100980008C9180688C938C918F7D8C938C918660F8
:100990008C938C9188608C9378948C9180648C93E8
:1009A000A9E5B2E01C9211961C92119712961C9226
:1009B000129713961C92139714961C9214971596DF
:1009C0001C9286E08093560281E080939E02808193
:1009D00080939D0280819181DC01A75ABD4F2C91AB
:1009E00021111FC0DC01A75ABD4F21E02C9380814B
:1009F0009181DC01AA0FBB1F880F991F880F991FD7
:100A0000880F991FA80FB91FA15ABD4F8AE0019006
:100A10000D928A95E1F781E090E0089580E090E002
:100A2000089580E090E008951F920F920FB60F9204
:100A300011242F933F934F935F936F937F938F93E3
:100A40009F93AF93BF93CF93EF93FF9380919B02BC
:100A50008A3008F47AC08091780090917900909360
:100A600058028093570280919D0280939C028AE5F0
:100A700094E00E94FB0581E08093560220919D0244
:100A800030E0C901019666E070E00E94AC0A582F80
:100A9000FC01E75AFD4F8081813009F05FC00EC034
:100AA000482FC901BF010E94AC0A582FDC01A75A88
:100AB000BD4F8C91813029F4C093560250939D0212
:100AC00009C081E0840F2F5F3F4FC42F883041F76A
:100AD00040935602ECE7F0E08081807F8083809134
:100AE0009D028330C1F028F4813049F0823069F0F2
:100AF00029C08530E1F0A8F08630F9F023C0ECE79A
:100B0000F0E08081816080831DC0ECE7F0E08081AF
:100B10008260808317C0ECE7F0E08081836080838F
:100B200011C0ECE7F0E08081846080830BC0ECE7CB
:100B3000F0E080818560808305C0ECE7F0E0808193
:100B40008660808310929B0203C08F5F80939B021C
:100B5000EAE7F0E080818064808307C02E5F3F4F2A
:100B600043E0C2E0E6E0F0E09CCFFF91EF91CF914F
:100B7000BF91AF919F918F917F916F915F914F91B5
:100B80003F912F910F900FBE0F901F9018951092CC
:100B9000A1021092A00210929F0281E008950E948B
:100BA000E20380919F02882311F10E940604E091E4
:100BB000A102F0E0EE0FFF1FEE55FD4F0190F08116
:100BC000E02D09950E94E2038091A10290E0019638
:100BD0008F709078992324F40197806F9F6F01960E
:100BE0008093A10280919F02815080939F020E9476
:100BF000060481E00895CF93DF93EC010E94E203A5
:100C000020919F022031D0F48091A00290E0FC015D
:100C1000EE0FFF1FEE55FD4FD183C08301968F70FD
:100C20009078992324F40197806F9F6F01968093A9
:100C3000A0022F5F20939F02C1E001C0C0E00E948C
:100C400006048C2FDF91CF91089580E090E0089505
:100C50000895CF93DF93EC0160E08E810E94F40150
:100C600081E090E00E947D0261E08E810E94F401AB
:100C700081E090E00E947D0260E08E810E94F4019C
:100C800084E690E00E947D02DF91CF910895CF929B
:100C9000DF92EF92FF920F931F93CF93DF936C013C
:100CA0008C01095F1F4FC0E0D0E0E62EF12CB701A8
:100CB0000C2E02C0759567950A94E2F76170F801F1
:100CC00081918F010E94F4012196C430D10579F7FA
:100CD000C6010E942906DF91CF911F910F91FF90CD
:100CE000EF90DF90CF900895CF92DF92EF92FF9236
:100CF0000F931F93CF93DF936C018C01095F1F4FFC
:100D0000C0E0D0E0E62EF12CB7010C2E02C07595A4
:100D100067950A94E2F76170F80181918F010E9452
:100D2000F4012196C830D10579F7C6010E94290641
:100D3000DF91CF911F910F91FF90EF90DF90CF90B7
:100D400008951F93CF93DF93EC01162F642F8C81AE
:100D50000E94F4018D818F3F19F060E00E94F40140
:100D60008F8584FF05C0612FCE010E94740611C0DB
:100D7000612F70E075956795759567957595679581
:100D800075956795CE010E944706612FCE010E949E
:100D90004706DF91CF911F91089540E061E00E94E6
:100DA000A10680ED97E00E947D020895FC01443089
:100DB00008F043E08389481710F04FEF480FDF0138
:100DC000A40FB11D54969C91690F606840E0CF015B
:100DD0000E94A1060895FC016089262F2460208BC3
:100DE0006C6040E00E94A1060895AF92BF92CF923E
:100DF000DF92EF92FF920F931F93CF93DF93EC015B
:100E0000423018F08F8588608F874B8B1C8A80E476
:100E10008D8B6E8B70E0605C7F4F6F8B222329F08F
:100E2000413019F48F8584608F8761E08C810E9446
:100E300041028D818F3F19F061E00E94410261E023
:100E40008E810E9441027E0187E0E80EF11C00E0E5
:100E500010E06894AA24A3F8B12C6894CC24C2F8BA
:100E6000D12C8F8584FD03C08C2D9D2D02C08A2D31
:100E70009B2D081719074CF461E0F70181917F0160
:100E80000E9441020F5F1F4FECCF80E593EC0E9460
:100E90007D0260E08C810E94F40160E08E810E94FE
:100EA000F4018D818F3F19F060E00E94F4016F859D
:100EB00064FD1DC063E0CE010E94470684E991E114
:100EC0000E947D0263E0CE010E94470684E991E121
:100ED0000E947D0263E0CE010E94470686E990E011
:100EE0000E947D0262E0CE010E94470619C0606246
:100EF00040E0CE010E94A10684E991E10E947D02BA
:100F00006F85606240E0CE010E94A10686E990E014
:100F10000E947D026F85606240E0CE010E94A106C2
:100F20006F85606240E0CE010E94A10684E0888B5C
:100F3000CE010E94EB06CE010E94CD0682E0898B95
:100F400040E066E0CE010E94A106DF91CF911F91A3
:100F50000F91FF90EF90DF90CF90BF90AF900895EA
:100F6000CF92EF920F93FC011382128287E191E0FE
:100F70009183808364838FEF8583468327830087F3
:100F8000E186C2861386148615861686178620E0AB
:100F900041E060E1CF010E94F5060F91EF90CF9004
:100FA000089541E00E94A10681E090E008959093A9
:100FB000A9038093A80308952091DB02022E000C60
:100FC000330BF901EE0FFF1FE052FD4F082E000C0E
:100FD000990B91838083C901019664E670E00E94B9
:100FE000AC0A8093DB028091DC0285361CF48F5FB3
:100FF0008093DC0208958091A8038093DF02089516
:101000001092DD024091DC021416ECF4642F042EE1
:10101000000C770B1616170684F4E0EEF2E0440F8E
:10102000550B40525D4F80E090E021913191820F4D
:10103000931FE417F507C9F702C080E090E00E9413
:10104000AC0A6093DD0208956091DB021616BCF4D1
:101050004091DE02E0EEF2E0660F770B60527D4FCA
:1010600081919191242F042E000C330B28173907FE
:1010700008F4482FE617F70799F74093DE02089522
:101080006091DB021616BCF440910001E0EEF2E044
:10109000660F770B60527D4F81919191242F042E22
:1010A000000C330B8217930708F4482FE617F70755
:1010B00099F740930001089540E060E082EC92E0EF
:1010C0000E94D6066FE171E082EC92E00E94230359
:1010D00041E060E082EC92E00E94D60662E371E0BB
:1010E00082EC92E00E94230341E061E082EC92E016
:1010F0000E94D6066091DF02062E000C770B4AE0B4
:1011000050E082EC92E00E94D202089540E060E05C
:1011100082EC92E00E94D60663E471E082EC92E0F9
:101120000E94230341E060E082EC92E00E94D60638
:1011300062E371E082EC92E00E94230341E061E00F
:1011400082EC92E00E94D6066091DD02062E000C31
:10115000770B4AE050E082EC92E00E94D2020895C0
:1011600040E060E082EC92E00E94D6066CE571E01F
:1011700082EC92E00E94230341E060E082EC92E086
:101180000E94D60662E371E082EC92E00E942303A3
:1011900041E061E082EC92E00E94D6066091DE02BE
:1011A000062E000C770B4AE050E082EC92E00E94A1
:1011B000D202089540E060E082EC92E00E94D60600
:1011C0006DE671E082EC92E00E94230341E060E072
:1011D00082EC92E00E94D60662E371E082EC92E03B
:1011E0000E94230341E061E082EC92E00E94D60677
:1011F00060910001062E000C770B4AE050E082EC73
:1012000092E00E94D2020895CF93DF93C0EAD1E02A
:10121000E881F9810190F081E02D61E6CE01099528
:10122000E881F9810190F081E02D6091DF02CE012B
:101230000995E881F9810190F081E02D6DE4CE01FE
:101240000995E881F9810190F081E02D6091DE023D
:10125000CE010995E881F9810190F081E02D6DE6DC
:10126000CE010995E881F9810190F081E02D60912E
:101270000001CE010995E881F9810190F081E02D0E
:1012800060E7CE010995E881F9810190F081E02DB8
:101290006091DD02CE010995DF91CF9108950E9402
:1012A000C70520E042E060E182EC92E00E94F50692
:1012B00087ED97E00E94440440E060E082EC92E019
:1012C0000E94D60666E371E082EC92E00E9423035E
:1012D00026E040E855E260E070E080EA91E00E949C
:1012E0007D03E0EEF2E088EA93E011921192E817B4
:1012F000F907D9F740E060E082EC92E00E94D60660
:1013000060E871E082EC92E00E94230341E060E03B
:1013100082EC92E00E94D60663E971E082EC92E0F2
:101320000E942303F894A0EBB0E01C92E1EBF0E004
:1013300010828C9182608C93A0E7B0E08C918160E8
:101340008C931092B2008081876080837894089596
:101350000E94CF0508951F920F920FB60F9211248D
:101360002F933F934F935F936F937F938F939F93AD
:10137000AF93BF93EF93FF931092B2008091DA0284
:1013800090E0019669E070E00E94AC0A8093DA0276
:1013900081110DC08091AA039091AB0301969093A7
:1013A000AB038093AA0384E29AE00E94FB05FF91BD
:1013B000EF91BF91AF919F918F917F916F915F91CD
:1013C0004F913F912F910F900FBE0F901F90189546
:1013D000CF92EF920F930F2EF7E0CF2EF02D0F2E1E
:1013E000F6E0EF2EF02D05E024E049E068E082EC25
:1013F00092E00E94B0070F91EF90CF90089580EA9D
:1014000091E00E94E30018161906ECF480EA91E0DE
:101410000E94C10081369105A1F024F48D3491051C
:1014200069F008958D36910531F08037910559F4B2
:101430000E94860808950E94DA0808950E94B00864
:1014400008950E945C0808950E94FF090E94040903
:101450008091A8030E94DC070E94FB070E944008BD
:101460000E9424080E9400080895789484B5826040
:1014700084BD84B5816084BD85B5826085BD85B538
:10148000816085BD80916E00816080936E001092B6
:101490008100809181008260809381008091810031
:1014A00081608093810080918000816080938000C2
:1014B0008091B10084608093B1008091B000816020
:1014C0008093B00080917A00846080937A0080914C
:1014D0007A00826080937A0080917A0081608093A4
:1014E0007A0080917A00806880937A001092C1001F
:1014F0000E944F090E94A8090E948A01FBCFE0EADE
:10150000F1E01382128288EE93E0A0E0B0E08483E1
:101510009583A683B78385E091E09183808385ECF2
:1015200090E09587848784EC90E09787868780ECAD
:1015300090E0918B808B81EC90E0938B828B82EC9E
:1015400090E0958B848B86EC90E0978B868B118E48
:10155000128E138E148E089597FB072E16F40094A6
:1015600007D077FD09D00E94C00A07FC05D03EF4E1
:10157000909581959F4F0895709561957F4F08953F
:10158000AA1BBB1B51E107C0AA1FBB1FA617B707A9
:1015900010F0A61BB70B881F991F5A95A9F78095C5
:1015A0009095BC01CD010895EE0FFF1F0590F491B9
:1015B000E02D0994A1E21A2EAA1BBB1BFD010DC050
:1015C000AA1FBB1FEE1FFF1FA217B307E407F507F3
:1015D00020F0A21BB30BE40BF50B661F771F881FCF
:1015E000991F1A9469F760957095809590959B0165
:1015F000AC01BD01CF01089581E090E0F8940C9416
:06160000010BF894FFCF7E
:10160600C8000000001B018800B2006801E300C1A9
:1016160000D50000000000D10788002506280654E2
:10162600656D702041637475616C20202020202038
:1016360020002020202020202020202020202020C4
:1016460020200054656D702050726F6D6564696F5F
:1016560020202020202020202020200054656D708E
:10166600204D6178696D6120202020200054656D31
:1016760070204D696E696D61202020202020200099
:10168600532E452E20323031392020202020202094
:101696002020004163746976696461642032000029
:00000001FF
