:100000000C945D000C9485000C9485000C94850084
:100010000C9485000C9485000C9485000C9485004C
:100020000C9485000C9485000C9485000C9485003C
:100030000C9485000C9485000C9485000C9485002C
:100040000C948A040C9485000C9485000C94850013
:100050000C9485000C9495010C9485000C948500FB
:100060000C9485000C94850000000008000201003B
:100070000003040700000000000000000102040863
:100080001020408001020408102001020408102002
:10009000040404040404040402020202020203032E
:1000A0000303030300000000250028002B000000CC
:1000B0000000240027002A00730411241FBECFEF84
:1000C000D8E0DEBFCDBF11E0A0E0B1E0E0E3FDE0AD
:1000D00002C005900D92A034B107D9F721E0A0E449
:1000E000B1E001C01D92AC3AB207E1F710E0CDE5F6
:1000F000D0E004C02197FE010E949006CC35D107C4
:10010000C9F70E94B2050C9496060C9400002FB714
:10011000F8948091400190914101892B19F4222398
:100120009CF408C08091400190914101892B91F08D
:10013000222384F080914001909141010196909397
:1001400041018093400108958091400190914101C7
:10015000892B81F708952FB7F894809140019091F1
:100160004101181619068CF48091400190914101CB
:1001700001979093410180934001809140019091BB
:100180004101892B29F47894089522230CF4789462
:1001900008958091450190E0909349018093480132
:1001A0008091480190914901089580914A018F5FA3
:1001B00080934A01833330F089EC90E00E94D301B0
:1001C00010924A010895E2E4F1E01082138285ED75
:1001D00090E0928381830895CF93DF9380916201B1
:1001E00090E0909366018093650180916501909104
:1001F0006601C29700F18091650190916601863E8B
:10020000910508F44CC08091650190916601883693
:10021000914008F447C08091650190916601873153
:10022000924008F442C08091650190916601883F38
:100230009240D8F43DC08091000190910101892B3A
:1002400009F43FC0C0E0D0E0D0930101C0930001A9
:10025000FE01EE0FFF1FEE0FFF1FE55BFE4F02805A
:10026000F381E02D0995259764F18091000190912B
:1002700001018F3F2FEF920721F1880F991F880FFF
:10028000991FFC01E55BFE4F0190F081E02D09957F
:100290008FEF9FEF909301018093000112C0C1E0A6
:1002A000D0E008C0C2E0D0E005C0C3E0D0E002C0AA
:1002B000C4E0D0E08091000190910101C817D907F6
:1002C00019F6DF91CF910895809167018F5F809338
:1002D0006701833330F08CEE90E00E94D3011092DE
:1002E000670108956530710548F4660F771F660F42
:1002F000771FFB01E55BFE4F918380830895653096
:10030000710548F4660F771F660F771FFB01E55BE9
:10031000FE4F938382830895EFE5F1E0108213820C
:1003200084E691E09283818308951F920F920FB625
:100330000F9211240F900FBE0F901F9018951092DE
:100340006A01109269011092680181E008950E948B
:10035000870080916801882311F10E94AB00E09131
:100360006A01F0E0EE0FFF1FE559FE4F0190F081AA
:10037000E02D09950E94870080916A0190E0019626
:100380008F709078992324F40197806F9F6F019666
:1003900080936A01809168018150809368010E9476
:1003A000AB0081E00895CF93DF93EC010E948700BA
:1003B000209168012031D0F48091690190E0FC0126
:1003C000EE0FFF1FE559FE4FD183C08301968F705A
:1003D0009078992324F40197806F9F6F0196809302
:1003E00069012F5F20936801C1E001C0C0E00E9455
:1003F000AB008C2FDF91CF91089580E090E00895BD
:100400000895CF93DF93EC0160E08E810E947B051D
:1004100081E090E00E94D40461E08E810E947B051F
:1004200081E090E00E94D40460E08E810E947B0510
:1004300084E690E00E94D404DF91CF910895CF929A
:10044000DF92EF92FF920F931F93CF93DF936C0194
:100450008C01095F1F4FC0E0D0E0E62EF12CB70100
:100460000C2E02C0759567950A94E2F76170F80149
:1004700081918F010E947B052196C430D10579F7C7
:10048000C6010E940102DF91CF911F910F91FF9051
:10049000EF90DF90CF900895CF92DF92EF92FF928E
:1004A0000F931F93CF93DF936C018C01095F1F4F54
:1004B000C0E0D0E0E62EF12CB7010C2E02C07595FD
:1004C00067950A94E2F76170F80181918F010E94AB
:1004D0007B052196C830D10579F7C6010E9401023B
:1004E000DF91CF911F910F91FF90EF90DF90CF9010
:1004F00008951F93CF93DF93EC01162F642F8C8107
:100500000E947B058D818F3F19F060E00E947B0582
:100510008F8584FF05C0612FCE010E944C0211C05F
:10052000612F70E0759567957595679575956795D9
:1005300075956795CE010E941F02612FCE010E9422
:100540001F02DF91CF911F91089540E061E00E946A
:10055000790280ED97E00E94D4040895FC014430B4
:1005600008F043E08389481710F04FEF480FDF0190
:10057000A40FB11D54969C91690F606840E0CF01B3
:100580000E9479020895FC016089262F2460208B47
:100590006C6040E00E9479020895AF92BF92CF92C2
:1005A000DF92EF92FF920F931F93CF93DF93EC01B3
:1005B000423018F08F8588608F874B8B1C8A80E4CF
:1005C0008D8B6E8B70E0605C7F4F6F8B222329F0E8
:1005D000413019F48F8584608F8761E08C810E949F
:1005E00042058D818F3F19F061E00E94420561E074
:1005F0008E810E9442057E0187E0E80EF11C00E03A
:1006000010E06894AA24A3F8B12C6894CC24C2F812
:10061000D12C8F8584FD03C08C2D9D2D02C08A2D89
:100620009B2D081719074CF461E0F70181917F01B8
:100630000E9442050F5F1F4FECCF80E593EC0E94B4
:10064000D40460E08C810E947B0560E08E810E9472
:100650007B058D818F3F19F060E00E947B056F85DF
:1006600064FD1DC063E0CE010E941F0284E991E198
:100670000E94D40463E0CE010E941F0284E991E14C
:100680000E94D40463E0CE010E941F0286E990E03C
:100690000E94D40462E0CE010E941F0219C0606271
:1006A00040E0CE010E94790284E991E10E94D404E5
:1006B0006F85606240E0CE010E94790286E990E099
:1006C0000E94D4046F85606240E0CE010E947902EE
:1006D0006F85606240E0CE010E94790284E0888BE1
:1006E000CE010E94C302CE010E94A50282E0898B46
:1006F00040E066E0CE010E947902DF91CF911F9128
:100700000F91FF90EF90DF90CF90BF90AF90089542
:10071000CF92EF920F93FC011382128286E091E058
:100720009183808364838FEF85834683278300874B
:10073000E186C2861386148615861686178620E003
:1007400041E060E1CF010E94CD020F91EF90CF9088
:10075000089541E00E94790281E090E008950895B3
:100760000895089508950895089540E060E08BE8A5
:1007700091E00E94AE026EE071E08BE891E00E9491
:10078000FF0541E060E08BE891E00E94AE024AE0A4
:1007900050E060E08BE891E00E94670608950E94B7
:1007A000B503089540E060E08BE891E00E94AE025E
:1007B0006AE171E08BE891E00E94FF0541E060E0B2
:1007C0008BE891E00E94AE024AE050E060E08BE8E6
:1007D00091E00E94670608950E94D203089540E0C8
:1007E00060E08BE891E00E94AE0268E271E08BE885
:1007F00091E00E94FF0541E060E08BE891E00E94FB
:10080000AE024AE050E060E08BE891E00E946706AB
:1008100008950E94EF03089540E060E08BE891E0C6
:100820000E94AE0264E371E08BE891E00E94FF0554
:1008300041E060E08BE891E00E94AE024AE050E0C7
:1008400068EC8BE891E00E94670608950E940C0412
:1008500008950E949F010E948C010E94E30061E0C4
:1008600070E089E094E00E94720161E070E080EB4A
:1008700093E00E947F0162E070E086E294E00E94D3
:10088000720162E070E081EB93E00E947F0163E01F
:1008900070E08FEC93E00E94720163E070E082EB05
:1008A00093E00E947F0160E070E08CEE93E00E9494
:1008B000720160E070E083EB93E00E947F0164E0EE
:1008C00070E08FEA93E00E94720164E070E084EBD4
:1008D00093E00E947F0184E690E00197F1F708958C
:1008E0000E94A7010895CF92EF920F930F2EF7E089
:1008F000CF2EF02D0F2EF6E0EF2EF02D05E024E0A8
:1009000049E068E08BE891E00E9488030F91EF9046
:10091000CF9008951F920F920FB60F9211242F932C
:100920003F938F939F93AF93BF938091A401909136
:10093000A501A091A601B091A7013091A30123E0E8
:10094000230F2D3720F40196A11DB11D05C026E807
:10095000230F0296A11DB11D2093A3018093A40132
:100960009093A501A093A601B093A7018091A8013F
:100970009091A901A091AA01B091AB010196A11D8E
:10098000B11D8093A8019093A901A093AA01B093EF
:10099000AB01BF91AF919F918F913F912F910F909C
:1009A0000FBE0F901F901895019739F0880F991F6F
:1009B000880F991F02970197F1F70895789484B5ED
:1009C000826084BD84B5816084BD85B5826085BD4B
:1009D00085B5816085BDEEE6F0E080818160808331
:1009E000E1E8F0E010828081826080838081816014
:1009F0008083E0E8F0E0808181608083E1EBF0E0DB
:100A0000808184608083E0EBF0E08081816080837E
:100A1000EAE7F0E080818460808380818260808367
:100A20008081816080838081806880831092C10092
:100A30000895833081F028F4813099F08230A1F05C
:100A400008958730A9F08830B9F08430D1F48091CE
:100A500080008F7D03C0809180008F77809380001D
:100A6000089584B58F7702C084B58F7D84BD0895C5
:100A70008091B0008F7703C08091B0008F7D80930C
:100A8000B0000895CF93DF9390E0FC01E458FF4F4E
:100A90002491FC01E057FF4F8491882349F190E0B5
:100AA000880F991FFC01E255FF4FA591B4918C5519
:100AB0009F4FFC01C591D4919FB7611108C0F89474
:100AC0008C91209582238C93888182230AC0623086
:100AD00051F4F8948C91322F309583238C93888134
:100AE000822B888304C0F8948C91822B8C939FBFB7
:100AF000DF91CF9108950F931F93CF93DF931F92B0
:100B0000CDB7DEB7282F30E0F901E859FF4F8491C7
:100B1000F901E458FF4F1491F901E057FF4F049198
:100B20000023C9F0882321F069830E941905698197
:100B3000E02FF0E0EE0FFF1FEC55FF4FA591B491B1
:100B40009FB7F8948C91611103C01095812301C067
:100B5000812B8C939FBF0F90DF91CF911F910F91AD
:100B6000089508950E94DE040E94B1050E942904A0
:100B7000C0E0D0E00E9470042097E1F30E940000E2
:100B8000F9CFCF92DF92EF92FF920F931F93CF9303
:100B9000DF936C017A01EB01E60EF71E00E010E036
:100BA000CE15DF0561F06991D601ED91FC910190C0
:100BB000F081E02DC6010995080F191FF1CFC8017A
:100BC000DF91CF911F910F91FF90EF90DF90CF9029
:100BD00008956115710581F0DB010D900020E9F7A2
:100BE000AD0141505109461B570BDC01ED91FC91C1
:100BF0000280F381E02D099480E090E008950C9448
:100C0000E9058F929F92AF92BF92CF92DF92EF92BF
:100C1000FF920F931F93CF93DF93CDB7DEB7A197CA
:100C20000FB6F894DEBF0FBECDBF7C01C42EE52FFA
:100C3000CB01D22E19A221E02D1510F02AE0D22EE0
:100C40008E010F5D1F4F8D2C912CA12CB12C6C2D82
:100C50007E2FA50194010E946E068C2DD29E8019D4
:100C60001124015011098A3014F4805D01C0895C9F
:100C7000F8018083211531054105510521F0C22E6F
:100C8000E32FCA01E4CFB801C7010E94E905A1968C
:100C90000FB6F894DEBF0FBECDBFDF91CF911F918D
:100CA0000F91FF90EF90DF90CF90BF90AF909F900B
:100CB0008F9008952115310541F4DC01ED91FC91EF
:100CC0000190F081E02D642F09940C9401069A01A3
:100CD000462F50E060E070E00C945A06A1E21A2E14
:100CE000AA1BBB1BFD010DC0AA1FBB1FEE1FFF1FD0
:100CF000A217B307E407F50720F0A21BB30BE40B20
:100D0000F50B661F771F881F991F1A9469F7609566
:100D10007095809590959B01AC01BD01CF01089520
:100D2000EE0FFF1F0590F491E02D0994F894FFCF8A
:100D3000FFFF00000000A903C105FD01000254658A
:100D40006D702041637475616C0054656D70205046
:100D5000726F6D6564696F0054656D70204D6178C8
:100D6000696D610054656D70204D696E696D61003B
:00000001FF
