S01700004763634170706C69636174696F6E312E737265635B
S11300000C945D000C9485000C9485000C94850080
S11300100C9485000C9485000C9485000C94850048
S11300200C9485000C944B060C9485000C9485006C
S11300300C9485000C9485000C9485000C94850028
S11300400C94B9060C9485000C9485000C948500DE
S11300500C9485000C9454010C9485000C94850038
S11300600C9485000C948500000000080002010037
S1130070000304070000000000000000010204085F
S113008010204080010204081020010204081020FE
S1130090040404040404040402020202020203032A
S11300A00303030300000000250028002B000000C8
S11300B00000240027002A00A20611241FBECFEF4F
S11300C0D8E0DEBFCDBF11E0A0E0B1E0E4EFF2E1A3
S11300D002C005900D92A438B107D9F722E0A4E834
S11300E0B1E001C01D92A730B207E1F710E0CDE501
S11300F0D0E004C02197FE010E947209CC35D107DB
S1130100C9F70E9440080C9478090C9400002FB79A
S1130110F8948091840190918501892B19F422230C
S11301209CF408C08091840190918501892B91F001
S1130130222384F08091840190918501019690930B
S113014085018093840108958091840190918501B3
S1130150892B81F708952FB7F894809184019091A9
S11301608501181619068CF48091840190918501FB
S113017001979093850180938401809184019091EB
S11301808501892B29F47894089522230CF478941A
S11301900895CF93DF9380919A0190919B01C29728
S11301A000F180919A0190919B01863E910508F49B
S11301B04CC080919A0190919B018836914008F43B
S11301C047C080919A0190919B018731924008F435
S11301D042C080919A0190919B01883F9240D8F44B
S11301E03DC08091000190910101892B09F43FC029
S11301F0C0E0D0E0D0930101C0930001FE01EE0FF6
S1130200FF1FEE0FFF1FEA57FE4F0280F381E02D20
S11302100995259764F180910001909101018F3F28
S11302202FEF920721F1880F991F880F991FFC0166
S1130230EA57FE4F0190F081E02D09958FEF9FEF73
S1130240909301018093000112C0C1E0D0E008C086
S1130250C2E0D0E005C0C3E0D0E002C0C4E0D0E01A
S11302608091000190910101C817D90719F6DF9117
S1130270CF9108956530710548F4660F771F660FB6
S1130280771FFB01EA57FE4F918380830895653001
S1130290710548F4660F771F660F771FFB01EA5755
S11302A0FE4F9383828308951F920F920FB60F928D
S11302B011242F933F934F935F936F937F938F9367
S11302C09F93AF93BF93EF93FF9380919C018F5FB4
S11302D080939C01833380F0809178002091790091
S11302E090E0922B90939B0180939A0189EC90E08B
S11302F00E94E40110929C01FF91EF91BF91AF9194
S11303009F918F917F916F915F914F913F912F9129
S11303100F900FBE0F901F901895ECE7F0E08081CE
S11303208F7D80838081806480838081807F8083CF
S1130330EAE7F0E080818068808380818062808346
S1130340ABE7B0E08C91887F8C938081866080835A
S1130350808188608083789480818064808308951C
S113036010929F0110929E0110929D0181E00895C8
S11303700E94870080919D01882311F10E94AB00A7
S1130380E0919F01F0E0EE0FFF1FE056FE4F019059
S1130390F081E02D09950E94870080919F0190E0F3
S11303A001968F709078992324F40197806F9F6F42
S11303B0019680939F0180919D01815080939D01BE
S11303C00E94AB0081E00895CF93DF93EC010E947B
S11303D0870020919D012031D0F480919E0190E00E
S11303E0FC01EE0FFF1FE056FE4FD183C083019640
S11303F08F709078992324F40197806F9F6F0196F2
S113040080939E012F5F20939D01C1E001C0C0E055
S11304100E94AB008C2FDF91CF91089580E090E093
S113042008950895CF93DF93EC0160E08E810E94DC
S1130430090881E090E00E94030761E08E810E9438
S1130440090881E090E00E94030760E08E810E9429
S1130450090884E690E00E940307DF91CF91089594
S1130460CF92DF92EF92FF920F931F93CF93DF937C
S11304706C018C01095F1F4FC0E0D0E0E62EF12C27
S1130480B7010C2E02C0759567950A94E2F7617066
S1130490F80181918F010E9409082196C430D10589
S11304A079F7C6010E941202DF91CF911F910F913B
S11304B0FF90EF90DF90CF900895CF92DF92EF926C
S11304C0FF920F931F93CF93DF936C018C01095F0D
S11304D01F4FC0E0D0E0E62EF12CB7010C2E02C075
S11304E0759567950A94E2F76170F80181918F011F
S11304F00E9409082196C830D10579F7C6010E94E7
S11305001202DF91CF911F910F91FF90EF90DF9036
S1130510CF9008951F93CF93DF93EC01162F642F90
S11305208C810E9409088D818F3F19F060E00E9440
S113053009088F8584FF05C0612FCE010E945D02EA
S113054011C0612F70E075956795759567957595E0
S1130550679575956795CE010E943002612FCE0193
S11305600E943002DF91CF911F91089540E061E035
S11305700E948A0280ED97E00E9403070895FC011F
S1130580443008F043E08389481710F04FEF480FD8
S1130590DF01A40FB11D54969C91690F606840E07F
S11305A0CF010E948A020895FC016089262F2460ED
S11305B0208B6C6040E00E948A020895AF92BF9243
S11305C0CF92DF92EF92FF920F931F93CF93DF931B
S11305D0EC01423018F08F8588608F874B8B1C8A22
S11305E080E48D8B6E8B70E0605C7F4F6F8B222379
S11305F029F0413019F48F8584608F8761E08C8104
S11306000E94D0078D818F3F19F061E00E94D007CE
S113061061E08E810E94D0077E0187E0E80EF11C24
S113062000E010E06894AA24A3F8B12C6894CC24C8
S1130630C2F8D12C8F8584FD03C08C2D9D2D02C062
S11306408A2D9B2D081719074CF461E0F70181915D
S11306507F010E94D0070F5F1F4FECCF80E593EC22
S11306600E94030760E08C810E94090860E08E818B
S11306700E9409088D818F3F19F060E00E940908EB
S11306806F8564FD1DC063E0CE010E94300284E9E1
S113069091E10E94030763E0CE010E94300284E9E5
S11306A091E10E94030763E0CE010E94300286E9D3
S11306B090E00E94030762E0CE010E94300219C05C
S11306C0606240E0CE010E948A0284E991E10E94C6
S11306D003076F85606240E0CE010E948A0286E9CA
S11306E090E00E9403076F85606240E0CE010E94A3
S11306F08A026F85606240E0CE010E948A0284E033
S1130700888BCE010E94D402CE010E94B60282E000
S1130710898B40E066E0CE010E948A02DF91CF918E
S11307201F910F91FF90EF90DF90CF90BF90AF900B
S11307300895CF92EF920F93FC011382128288E006
S113074091E09183808364838FEF8583468327833D
S11307500087E186C2861386148615861686178658
S113076020E041E060E1CF010E94DE020F91EF90B2
S1130770CF90089540E068E10E948A02089540E025
S11307806CE10E948A02089541E00E948A0281E09D
S113079090E008950895089508950895089508959A
S11307A08091F9019091FA018093DC010895809180
S11307B0FD01823011F40E94D00308958091F90163
S11307C09091FA018093DB0108958091F901909151
S11307D0FA018093DA0108958091FD01823069F075
S11307E01CF4882331F00895833001F1843011F131
S11307F0089582E08093FD0108950E94DE038091B4
S1130800DB01082E000C990B2091DC01821B91095D
S113081027FD9395039724F483E08093FD010895C5
S113082084E08093FD010E94E503089582E08093B3
S1130830FD01089582E08093FD0108958091E40113
S1130840893019F48FEF8093E401E091E401EF5FC4
S1130850E093E401F0E0EE0FFF1FEB51FE4F8091B7
S1130860DD019091DE0191838083089560910301FD
S1130870653050F46F5F6093030183E3689FB001B8
S113088011248AE00E9448070895609103016230B0
S113089050F061506093030183E3689FB001112419
S11308A08AE00E94480708958091E30189301CF092
S11308B08FEF8093E301E091E301EF5FE093E301C5
S11308C0EE0FFF0BEB51FE4F8081918108958091D3
S11308D0E30118161CF08AE08093E301E091E30140
S11308E0E150E093E301EE0FFF0BEB51FE4F8081EB
S11308F0918108951092DE011092DD011092E201BF
S11309001092E1011092FA011092F9010895809178
S1130910FD01823091F02CF4882341F0813051F0B4
S11309200895833079F08430A1F0089582E08093B3
S1130930FD0108950E941E0408950E941E040E9451
S11309407A0408950E9467049093DE018093DD0188
S113095008950E94E5030E94450408958091F901D9
S11309609091FA019093E2018093E1019093DE016A
S11309708093DD0108958091E1019091E2019093CB
S1130980FA018093F90108958091FD018230A9F064
S11309902CF4882341F0813051F00895833099F08C
S11309A08430C1F0089582E08093FD0108950E948F
S11309B0AE0482E08093FD0108950E94BB0481E0AF
S11309C08093FD0108950E9454049093DE01809366
S11309D0DD0108950E94E5038091E1019091E20117
S11309E02091DF013091E0012817390721F090931D
S11309F0E0018093DF010E9436040895CF93C82F4D
S1130A0040E06DE080EC91E00E94BF02C23081F0D2
S1130A101CF4C13031F020C0C33089F0C430B1F0CF
S1130A201BC060E171E080EC91E00E948D0814C06D
S1130A3064E171E080EC91E00E948D080DC068E1F2
S1130A4071E080EC91E00E948D0806C06CE171E0D9
S1130A5080EC91E00E948D08CF9108958091FD0172
S1130A60811148C08091D8019091D9010097C9F4AF
S1130A7040E060E080EC91E00E94BF0260E271E03F
S1130A8080EC91E00E948D0841E060E080EC91E010
S1130A900E94BF0268E371E080EC91E00E948D083F
S1130AA00FC080FD0DC080910201882329F080ECE5
S1130AB091E00E94BA0304C080EC91E00E94BF035D
S1130AC08091D8019091D901409754F090910201FE
S1130AD081E08927809302011092D9011092D801F4
S1130AE08091D8019091D90101969093D901809376
S1130AF0D801089580EC91E00E94B6028091FD0136
S1130B00813041F48091F9019091FA019093DE01D2
S1130B108093DD018091FD01843061F48091F901BD
S1130B209091FA012091DA01821B910927FD939596
S1130B30069708F540E060E080EC91E00E94BF0277
S1130B4061E571E080EC91E00E948D088091FD01E7
S1130B500E94FE0440E060E080EC91E00E94BF024D
S1130B606091DD017091DE014AE050E080EC91E09B
S1130B700E943909089582E08093FD01DBCF0E9431
S1130B808D010E94B00161E070E084EC94E00E9469
S1130B903A0161E070E08AEC93E00E94470162E070
S1130BA070E087E894E00E943A0162E070E08BEC28
S1130BB093E00E94470163E070E08CEC93E00E94B4
S1130BC03A0163E070E08DEC93E00E94470160E03D
S1130BD070E08EEC93E00E943A0160E070E08FECEC
S1130BE093E00E94470164E070E08CEE93E00E9481
S1130BF03A0164E070E087ED93E00E944701E5EE7E
S1130C00F1E089EF91E011921192E817F907D9F711
S1130C1020E042E060E180EC91E00E94DE0260911D
S1130C20030183E3689FB00111248AE00E9448070E
S1130C3040E060E080EC91E00E94BF0262E671E077
S1130C4080EC91E00E948D0841E060E080EC91E04E
S1130C500E94BF0263E771E080EC91E00E948D087E
S1130C601092FD01F894A0EBB0E01C92E1EBF0E0EF
S1130C7010828C9182608C93A0E7B0E08C918160AB
S1130C808C931092B2008081876080837894089559
S1130C900E94B80108951F920F920FB60F9211246B
S1130CA02F933F934F935F936F937F938F939F9370
S1130CB0AF93BF93EF93FF931092B2004091FB0167
S1130CC05091FC014F5F5F4F9A01A9E8B8E80E9478
S1130CD0630996958795929582958F7089279F7061
S1130CE089276CE3689F9001699F300D1124CA0124
S1130CF0821B930B9093FC018093FB018091FB0179
S1130D009091FC01892B69F48091F9019091FA0189
S1130D1001969093FA018093F9018EE295E00E9486
S1130D20E401FF91EF91BF91AF919F918F917F91DA
S1130D306F915F914F913F912F910F900FBE0F9044
S1130D401F901895CF92EF920F930F2EF7E0CF2EAE
S1130D50F02D0F2EF6E0EF2EF02D05E024E049E013
S1130D6068E080EC91E00E9499030F91EF90CF909E
S1130D7008951F920F920FB60F9211242F933F9351
S1130D808F939F93AF93BF938091FF019091000243
S1130D90A0910102B09102023091FE0123E0230FE1
S1130DA02D3720F40196A11DB11D05C026E8230F9F
S1130DB00296A11DB11D2093FE018093FF01909323
S1130DC00002A0930102B093020280910302909169
S1130DD00402A0910502B09106020196A11DB11D65
S1130DE08093030290930402A0930502B093060239
S1130DF0BF91AF919F918F913F912F910F900FBE13
S1130E000F901F901895019739F0880F991F880F3C
S1130E10991F02970197F1F70895789484B5826039
S1130E2084BD84B5816084BD85B5826085BD85B58A
S1130E30816085BDEEE6F0E0808181608083E1E839
S1130E40F0E0108280818260808380818160808371
S1130E50E0E8F0E0808181608083E1EBF0E0808174
S1130E6084608083E0EBF0E0808181608083EAE746
S1130E70F0E08081846080838081826080838081CF
S1130E80816080838081806880831092C10008958E
S1130E901F93CF93DF93182FEB0161E00E94D007DB
S1130EA0209711F460E004C0CF3FD10539F461E02C
S1130EB0812FDF91CF911F910C940908E12FF0E06D
S1130EC0E859FF4FE491E330F9F048F4E130B9F028
S1130ED0E230A1F584B5806284BDC8BD34C0E7307A
S1130EE0E9F0E83019F1E43049F58091800080623E
S1130EF080938000D0938B00C0938A0024C084B573
S1130F00806884BDC7BD1FC08091800080688093C5
S1130F108000D0938900C093880015C08091B000F0
S1130F2080688093B000C093B3000DC08091B0007E
S1130F3080628093B000C093B40005C0C038D1056E
S1130F400CF0B5CFAFCFDF91CF911F9108958330CF
S1130F5081F028F4813099F08230A1F0089587302F
S1130F60A9F08830B9F08430D1F4809180008F7D6D
S1130F7003C0809180008F7780938000089584B5AA
S1130F808F7702C084B58F7D84BD08958091B000B1
S1130F908F7703C08091B0008F7D8093B000089557
S1130FA0CF93DF9390E0FC01E458FF4F2491FC01C0
S1130FB0E057FF4F8491882349F190E0880F991FEF
S1130FC0FC01E255FF4FA591B4918C559F4FFC0154
S1130FD0C591D4919FB7611108C0F8948C91209564
S1130FE082238C93888182230AC0623051F4F8945E
S1130FF08C91322F309583238C938881822B888324
S113100004C0F8948C91822B8C939FBFDF91CF9175
S113101008950F931F93CF93DF931F92CDB7DEB73D
S1131020282F30E0F901E859FF4F8491F901E45881
S1131030FF4F1491F901E057FF4F04910023C9F0C9
S1131040882321F069830E94A7076981E02FF0E0DB
S1131050EE0FFF1FEC55FF4FA591B4919FB7F89485
S11310608C91611103C01095812301C0812B8C9355
S11310709FBF0F90DF91CF911F910F910895089515
S11310800E940D070E943F080E94BF05C0E0D0E007
S11310900E9448062097E1F30E940000F9CFCF9206
S11310A0DF92EF92FF920F931F93CF93DF936C0124
S11310B07A01EB01E60EF71E00E010E0CE15DF0525
S11310C061F06991D601ED91FC910190F081E02DE0
S11310D0C6010995080F191FF1CFC801DF91CF91FF
S11310E01F910F91FF90EF90DF90CF9008956115BD
S11310F0710581F0DB010D900020E9F7AD0141504D
S11311005109461B570BDC01ED91FC910280F381E0
S1131110E02D099480E090E008950C947708DC01B8
S1131120ED91FC910190F081E02D09948F929F92B2
S1131130AF92BF92CF92DF92EF92FF920F931F93E1
S1131140CF93DF93CDB7DEB7A1970FB6F894DEBF88
S11311500FBECDBF7C01C42EE52FCB01D22E19A228
S113116021E02D1510F02AE0D22E8E010F5D1F4FC5
S11311708D2C912CA12CB12C6C2D7E2FA5019401CA
S11311800E9441098C2DD29E80191124015011090D
S11311908A3014F4805D01C0895CF80180832115D4
S11311A031054105510521F0C22EE32FCA01E4CFD8
S11311B0B801C7010E947708A1960FB6F894DEBF64
S11311C00FBECDBFDF91CF911F910F91FF90EF9094
S11311D0DF90CF90BF90AF909F908F900895CF9263
S11311E0DF92EF92FF920F931F93CF93DF93EC0163
S11311F06A017B012115310579F4E881F9810190B7
S1131200F081E02D642FDF91CF911F910F91FF901A
S1131210EF90DF90CF9009942A303105E9F477FFFD
S11312201AC06DE20E948F088C0144275527BA0129
S11312304C195D096E097F092AE0CE010E949608C7
S1131240800F911FDF91CF911F910F91FF90EF902D
S1131250DF90CF9008952AE0B701A601CE01DF9177
S1131260CF911F910F91FF90EF90DF90CF900C944E
S113127096089A01AB01662757FD6095762F0C946A
S1131280EF08A1E21A2EAA1BBB1BFD010DC0AA1F69
S1131290BB1FEE1FFF1FA217B307E407F50720F0DB
S11312A0A21BB30BE40BF50B661F771F881F991F56
S11312B01A9469F760957095809590959B01AC019F
S11312C0BD01CF010895A29FB001B39FC001A39FA8
S11312D0700D811D1124911DB29F700D811D11246B
S11312E0911D0895EE0FFF1F0590F491E02D0994D0
S10712F0F894FFCF9C
S11312F4FFFF010400000000C4034F080E021102A2
S11313044D4341004D5020004D5654004D4144007E
S113131453697374656D617320456D6265626964B4
S11313246F7320323031390032646F204C61622093
S11313343220437561742E20417263652D526579A0
S113134400202020202020202020202020202020B5
S113135420004C6162203220536973742E20456D41
S1131364622E0032646F2E43203230313920434FD1
S10713744D203300D1
S9030000FC
