S01700004763634170706C69636174696F6E312E737265635B
S11300000C945D000C9485000C9485000C94850080
S11300100C9485000C9485000C9485000C94850048
S11300200C9485000C943F080C9485000C94850076
S11300300C9485000C9485000C9485000C94850028
S11300400C9430010C9485000C9485000C9485006C
S11300500C9485000C94B0030C9485000C948500DA
S11300600C9485000C9485000000000024002700F7
S11300702A0000000000250028002B0004040404CA
S1130080040404040202020202020303030303033E
S1130090010204081020408001020408102001021B
S11300A004081020000000080002010000030407F7
S11300B000000000000000007C0811241FBECFEFE8
S11300C0D8E0DEBFCDBF11E0A0E0B1E0E6E6F2E1AA
S11300D002C005900D92A039B107D9F723E0A0E939
S11300E0B1E001C01D92AD31B207E1F710E0CDE5FA
S11300F0D0E004C02197FE010E940909CC35D10744
S1130100C9F70E9493080C9431090C9400006115FE
S1130110710579F0FB0101900020E9F73197AF01F7
S1130120461B570BDC01ED91FC910280F381E02D1D
S1130130099480E090E0089590E0FC01EC55FF4FB5
S11301402491FC01E057FF4F3491FC01E458FF4F28
S1130150E491EE2309F43CC0222339F1233091F0D9
S113016038F42130A9F0223001F584B58F7D12C016
S1130170273091F02830A1F02430B9F48091800028
S11301808F7D03C0809180008F77809380000DC0A5
S113019084B58F7784BD09C08091B0008F7703C088
S11301A08091B0008F7D8093B000F0E0EE0FFF1FD0
S11301B0EE58FF4FA591B4919FB7F894611104C014
S11301C08C913095382302C0EC913E2B3C939FBF19
S11301D00895CF93DF9390E0FC01E057FF4F249103
S11301E0FC01E458FF4F8491882361F190E0880F6B
S11301F0991FFC01E859FF4FC591D491FC01EE58B9
S1130200FF4FA591B491611109C09FB7F8948881FB
S1130210209582238883EC912E230BC0623061F4F5
S11302209FB7F8948881322F309583238883EC918B
S11302302E2B2C939FBF06C08FB7F894E8812E2BEA
S113024028838FBFDF91CF9108958230910538F0D4
S1130250880F991F880F991F05970197F1F7089543
S11302601F920F920FB60F9211242F933F938F93E7
S11302709F93AF93BF938091950190919601A09124
S11302809701B09198013091940123E0230F2D3709
S113029020F40196A11DB11D05C026E8230F029686
S11302A0A11DB11D20939401809395019093960113
S11302B0A0939701B093980180919001909191013E
S11302C0A0919201B09193010196A11DB11D80935B
S11302D0900190939101A0939201B0939301BF91E7
S11302E0AF919F918F913F912F910F900FBE0F90DF
S11302F01F901895AF92BF92CF92DF92EF92FF9228
S11303000F931F93CF93DF93CDB7DEB7A1970FB6AB
S1130310F894DEBF0FBECDBF5C014115510541F419
S1130320DC01ED91FC910190F081E02D099526C04E
S113033019A2423008F44AE070E080E090E08E01B7
S11303400F5D1F4FC42ED12CE12CF12CA701960177
S11303500E940F09E62FCA01B90101501109EA30C0
S113036014F4E05D01C0E95CD801EC93232B242B49
S1130370252B61F7B801C5010E948700A1960FB62D
S1130380F894DEBF0FBECDBFDF91CF911F910F91C7
S1130390FF90EF90DF90CF90BF90AF9008950C94B2
S11303A08700CF92DF92EF92FF920F931F93CF9328
S11303B0DF936C017A018B01C0E0D0E0CE15DF053C
S11303C081F0D8016D918D01D601ED91FC910190E0
S11303D0F081E02DC6010995892B11F02196EECF0D
S11303E07E01C701DF91CF911F910F91FF90EF9094
S11303F0DF90CF9008952FB7F89480919901909150
S11304009A01892B19F422239CF408C08091990144
S113041090919A01892B91F0222384F08091990183
S113042090919A01019690939A018093990108956D
S11304308091990190919A01892B81F708952FB7A2
S1130440F8948091990190919A01181619068CF4E8
S11304508091990190919A01019790939A018093C8
S113046099018091990190919A01892B29F47894AA
S1130470089522230CF4789408954091A701509193
S1130480A80124EF31E0429FC001439F900D529F89
S1130490900D1124E0919B01F0919C01892F869588
S11304A0869590E0099508959093A8018093A701FB
S11304B08DE392E00E949704089590939C018093A9
S11304C09B01EDE9F1E081E090E091838083158266
S11304D0148284E592E093838283CF010E94120305
S11304E081E090E00895CF93DF938233910580F00B
S11304F0863E910508F440C0883621E09207F8F161
S1130500873122E09207F0F1883F9240D8F43DC051
S11305108091000190910101892B09F43FC0C0E052
S1130520D0E0D0930101C0930001FE01EE0FFF1F44
S1130530EE0FFF1FE755FE4F0280F381E02D099572
S1130540259764F180910001909101018F3F2FEF75
S1130550920721F1880F991F880F991FFC01E75515
S1130560FE4F0190F081E02D09958FEF9FEF90935E
S113057001018093000112C0C1E0D0E008C0C2E0D4
S1130580D0E005C0C3E0D0E002C0C4E0D0E0809178
S1130590000190910101C817D90719F6DF91CF9195
S11305A008956530710548F4660F771F660F771F4D
S11305B0FB01E755FE4F91838083089565307105F3
S11305C048F4660F771F660F771FFB01E755FE4F50
S11305D0938382830895EDEBF1E0118210821582FA
S11305E0148283E792E093838283CF010E941203F3
S11305F0089580910D0290E0FC01EE0FFF1F880F1B
S1130600991F880F991F880F991FE80FF91FE0534E
S1130610FE4F0280F381E02D8091C8019091C901C1
S113062009950895FC018081918106970CF092C090
S113063080910F0281116AC0ACE7B0E08C918F7D8C
S11306408C938C9180648C938C91807F8C9380812B
S1130650918183309105D1F034F48130910551F0CA
S1130660029771F02AC085309105E1F0ACF006974D
S1130670F9F023C0ACE7B0E08C9181608C931DC08D
S1130680ACE7B0E08C9182608C9317C0ACE7B0E02B
S11306908C9183608C9311C0ACE7B0E08C91846042
S11306A08C930BC0ACE7B0E08C9185608C9305C053
S11306B0ACE7B0E08C9186608C93AAE7B0E08C91B3
S11306C080688C938C918F7D8C938C9186608C93B5
S11306D08C9188608C9378948C9180648C93AAEC30
S11306E0B1E01C9211961C92119712961C921297CB
S11306F013961C92139714961C92149715961C9299
S113070086E08093C70181E080930F02808191810C
S1130710DC01A653BE4F2C9121111FC0DC01A6534E
S1130720BE4F21E02C9380819181DC01AA0FBB1F75
S1130730880F991F880F991F880F991FA80FB91F39
S1130740A053BE4F8AE001900D928A95E1F781E0B3
S113075090E0089580E090E0089580E090E00895AE
S11307601F920F920FB60F9211242F933F934F9322
S11307705F936F937F938F939F93AF93BF93CF9325
S1130780EF93FF9380910C02843608F47AC0809131
S11307907800909179009093C9018093C801809169
S11307A00E0280930D0289EF92E00E94970481E08B
S11307B08093C70120910E0230E0C901019666E0E2
S11307C070E00E94E108582FFC01E653FE4F80813F
S11307D0813009F05FC00EC0482FC901BF010E94DB
S11307E0E108582FDC01A653BE4F8C91813029F4C7
S11307F0C093C70150930E0209C081E0840F2F5F9C
S11308003F4FC42F883041F74093C701ECE7F0E035
S11308108081807F808380910E028330C1F028F430
S1130820813049F0823069F029C08530E1F0A8F0C8
S11308308630F9F023C0ECE7F0E0808181608083AA
S11308401DC0ECE7F0E080818260808317C0ECE794
S1130850F0E080818360808311C0ECE7F0E0808168
S1130860846080830BC0ECE7F0E080818560808346
S113087005C0ECE7F0E080818660808310920C0272
S113088003C08F5F80930C02EAE7F0E0808180640C
S1130890808307C02E5F3F4F43E0C2E0E6E0F0E014
S11308A09CCFFF91EF91CF91BF91AF919F918F9189
S11308B07F916F915F914F913F912F910F900FBE58
S11308C00F901F901895109212021092110210921C
S11308D0100281E008950E94FB0180911002882398
S11308E011F10E941F02E0911202F0E0EE0FFF1FCF
S11308F0ED5EFD4F0190F081E02D09950E94FB0112
S11309008091120290E001968F709078992324F4DC
S11309100197806F9F6F019680931202809110025D
S11309208150809310020E941F0281E00895CF93AA
S1130930DF93EC010E94FB01209110022031D0F4DE
S11309408091110290E0FC01EE0FFF1FED5EFD4F60
S1130950D183C08301968F709078992324F40197F2
S1130960806F9F6F0196809311022F5F2093100276
S1130970C1E001C0C0E00E941F028C2FDF91CF9123
S1130980089580E090E008950895CF93DF93EC01FB
S113099060E08E810E949C0081E090E00E9425012D
S11309A061E08E810E949C0081E090E00E9425011C
S11309B060E08E810E949C0084E690E00E94250104
S11309C0DF91CF910895CF92DF92EF92FF920F9330
S11309D01F93CF93DF936C018C01095F1F4FC0E01D
S11309E0D0E0E62EF12CB7010C2E02C07595679568
S11309F00A94E2F76170F80181918F010E949C00D2
S1130A002196C430D10579F7C6010E94C504DF914F
S1130A10CF911F910F91FF90EF90DF90CF900895A9
S1130A20CF92DF92EF92FF920F931F93CF93DF93B6
S1130A306C018C01095F1F4FC0E0D0E0E62EF12C61
S1130A40B7010C2E02C0759567950A94E2F76170A0
S1130A50F80181918F010E949C002196C830D10534
S1130A6079F7C6010E94C504DF91CF911F910F91C0
S1130A70FF90EF90DF90CF9008951F93CF93DF9373
S1130A80EC01162F642F8C810E949C008D818F3F76
S1130A9019F060E00E949C008F8584FF05C0612FDF
S1130AA0CE010E94100511C0612F70E07595679505
S1130AB0759567957595679575956795CE010E94AF
S1130AC0E304612FCE010E94E304DF91CF911F91D3
S1130AD0089540E061E00E943D0580ED97E00E94AA
S1130AE025010895FC01443008F043E08389481748
S1130AF010F04FEF480FDF01A40FB11D54969C91E5
S1130B00690F606840E0CF010E943D050895FC0133
S1130B106089262F2460208B6C6040E00E943D0594
S1130B200895AF92BF92CF92DF92EF92FF920F930C
S1130B301F93CF93DF93EC01423018F08F858860C8
S1130B408F874B8B1C8A80E48D8B6E8B70E0605C8E
S1130B507F4F6F8B222329F0413019F48F858460F5
S1130B608F8761E08C810E94E9008D818F3F19F0AD
S1130B7061E00E94E90061E08E810E94E9007E014B
S1130B8087E0E80EF11C00E010E06894AA24A3F8C2
S1130B90B12C6894CC24C2F8D12C8F8584FD03C079
S1130BA08C2D9D2D02C08A2D9B2D081719074CF4FE
S1130BB061E0F70181917F010E94E9000F5F1F4FFF
S1130BC0ECCF80E593EC0E94250160E08C810E94CB
S1130BD09C0060E08E810E949C008D818F3F19F003
S1130BE060E00E949C006F8564FD1DC063E0CE013F
S1130BF00E94E30484E991E10E94250163E0CE01AF
S1130C000E94E30484E991E10E94250163E0CE019E
S1130C100E94E30486E990E00E94250162E0CE018F
S1130C200E94E30419C0606240E0CE010E943D05C9
S1130C3084E991E10E9425016F85606240E0CE0164
S1130C400E943D0586E990E00E9425016F8560625F
S1130C5040E0CE010E943D056F85606240E0CE0118
S1130C600E943D0584E0888BCE010E948705CE0159
S1130C700E94690582E0898B40E066E0CE010E9413
S1130C803D05DF91CF911F910F91FF90EF90DF9081
S1130C90CF90BF90AF900895CF92EF920F93FC0145
S1130CA01382128287E091E09183808364838FEFC3
S1130CB08583468327830087E186C286138614864C
S1130CC015861686178620E041E060E1CF010E9478
S1130CD091050F91EF90CF90089541E00E943D055A
S1130CE081E090E008959093190380931803089588
S1130CF008950895089508950895089520914B0244
S1130D0030E0F901EE0FFF1FE05BFD4F082E000CF1
S1130D10990B91838083C901019664E670E00E9477
S1130D20E10880934B0280914C02853618F48F5F62
S1130D3080934C020895809118030E947E060895C2
S1130D408091180380934F02089510924D024091B0
S1130D504C024423E1F0642F70E0161617068CF45D
S1130D60E0E5F2E0AB01440F551F405B5D4F80E0CE
S1130D7090E021913191820F931FE417F507C9F791
S1130D8002C080E090E00E94E10860934D02089563
S1130D9060914B026623B1F040914E02E0E5F2E02F
S1130DA070E0660F771F605B7D4F81919191242FD6
S1130DB030E02817390708F4482FE617F707A9F792
S1130DC040934E02089560914B026623B1F0409126
S1130DD00201E0E5F2E070E0660F771F605B7D4F93
S1130DE081919191242F30E08217930708F4482FC2
S1130DF0E617F707A9F740930201089540E060E081
S1130E0083E392E00E9472056FE071E083E392E075
S1130E100E94CF0141E060E083E392E00E9472050A
S1130E2062E271E083E392E00E94CF0141E061E07D
S1130E3083E392E00E9472054AE050E060914F0221
S1130E4083E392E00E947A0108950E94A0060E9422
S1130E50FE06089540E060E083E392E00E9472059C
S1130E6063E371E083E392E00E94CF0141E060E03C
S1130E7083E392E00E94720562E271E083E392E010
S1130E800E94CF0141E061E083E392E00E94720599
S1130E904AE050E060914D0283E392E00E947A01BF
S1130EA008950E94A5060E942A07089540E060E084
S1130EB083E392E00E9472056CE471E083E392E0C4
S1130EC00E94CF0141E060E083E392E00E9472055A
S1130ED062E271E083E392E00E94CF0141E061E0CD
S1130EE083E392E00E9472054AE050E060914E0272
S1130EF083E392E00E947A0108950E94C8060E944A
S1130F005607089540E060E083E392E00E94720592
S1130F106DE571E083E392E00E94CF0141E060E07F
S1130F2083E392E00E94720562E271E083E392E05F
S1130F300E94CF0141E061E083E392E00E947205E8
S1130F404AE050E06091020183E392E00E947A015A
S1130F5008950E94E3060E94820708950E94630494
S1130F6020E042E060E183E392E00E9491050E9468
S1130F70EB0283E796E00E945D0240E060E083E3D9
S1130F8092E00E94720566E271E083E392E00E94BF
S1130F90CF01F894A0EBB0E01C92E1EBF0E01082FA
S1130FA08C9182608C93A0E7B0E08C9181608C93EB
S1130FB01092B200808187608083789461E070E051
S1130FC08DE797E00E94D10261E070E089E796E046
S1130FD00E94DE0262E070E089EA97E00E94D1029A
S1130FE062E070E08AE796E00E94DE0263E070E06F
S1130FF085E297E00E94D10263E070E08BE796E01F
S11310000E94DE0260E070E081E597E00E94D10278
S113101060E070E08CE796E00E94DE0264E070E03D
S113102088E796E00E94D10264E070E08DE796E0E4
S11310300E94DE02E0E5F2E088E193E01192119271
S1131040E817F907D9F740E060E083E392E00E94F3
S1131050720560E771E083E392E00E94CF0141E012
S113106060E083E392E00E94720563E871E083E349
S113107092E00E94CF0108950E946B0408951F928C
S11310800F920FB60F9211242F933F934F935F93B8
S11310906F937F938F939F93AF93BF93EF93FF933C
S11310A01092B20080911C0390E0019669E070E018
S11310B00E94E10880931C0381110DC080911A03E2
S11310C090911B03019690931B0380931A038BE961
S11310D096E00E949704FF91EF91BF91AF919F9189
S11310E08F917F916F915F914F913F912F910F90CD
S11310F00FBE0F901F901895CF92EF920F930F2E63
S1131100F7E0CF2EF02D0F2EF6E0EF2EF02D05E0B8
S113111024E049E068E083E392E00E944C060F91EA
S1131120EF90CF900895789484B5826084BD84B59F
S1131130816084BD85B5826085BD85B5816085BDCE
S113114080916E00816080936E0010928100809186
S1131150810082608093810080918100816080930E
S11311608100809180008160809380008091B10033
S113117084608093B1008091B00081608093B0005E
S113118080917A00846080937A0080917A008260F2
S113119080937A0080917A00816080937A008091B4
S11311A07A00806880937A001092C1000E94AE0792
S11311B0C0E0D0E00E943C082097E1F30E940000C8
S11311C0F9CF97FB072E16F4009407D077FD09D0CA
S11311D00E94F50807FC05D03EF4909581959F4F39
S11311E00895709561957F4F0895AA1BBB1B51E12B
S11311F007C0AA1FBB1FA617B70710F0A61BB70B83
S1131200881F991F5A95A9F780959095BC01CD0127
S11312100895EE0FFF1F0590F491E02D0994A1E2CB
S11312201A2EAA1BBB1BFD010DC0AA1FBB1FEE1F5C
S1131230FF1FA217B307E407F50720F0A21BB30BA7
S1131240E40BF50B661F771F881F991F1A9469F723
S113125060957095809590959B01AC01BD01CF017F
S10912600895F894FFCF8D
S1131266FFFFC8000000006D06D101C104C4045488
S1131276656D702041637475616C202020202020E8
S11312862000202020202020202020202020202074
S113129620200054656D702050726F6D6564696F0F
S11312A620202020202020202020200054656D703E
S11312B6204D6178696D6120202020200054656DE1
S11312C670204D696E696D61202020202020200049
S11312D6532E452E20323031392020202020202044
S11312E620200041637469766964616420310000DA
S9030000FC
