S01700004763634170706C69636174696F6E312E737265635B
S11300000C945D000C9485000C9485000C94850080
S11300100C9485000C9485000C9485000C94850048
S11300200C9485000C9485000C9485000C94850038
S11300300C9485000C9485000C9485000C94850028
S11300400C9448070C9485000C9485000C9485004E
S11300500C9485000C9410020C9485000C9485007B
S11300600C9485000C948500000000080002010037
S1130070000304070000000000000000010204085F
S113008010204080010204081020010204081020FE
S1130090040404040404040402020202020203032A
S11300A00303030300000000250028002B000000C8
S11300B00000240027002A00070611241FBECFEFEA
S11300C0D8E0DEBFCDBF11E0A0E0B1E0ECEFF2E19B
S11300D002C005900D92AE35B107D9F722E0AEE526
S11300E0B1E001C01D92A13CB207E1F710E0CDE5FB
S11300F0D0E004C02197FE010E947609CC35D107D7
S1130100C9F70E9470080C947C090C9400002FB766
S1130110F89480915E0190915F01892B19F4222358
S11301209CF408C080915E0190915F01892B91F04D
S1130130222384F080915E0190915F010196909357
S11301405F0180935E01089580915E0190915F014B
S1130150892B81F708952FB7F89480915E019091CF
S11301605F01181619068CF480915E0190915F016D
S1130170019790935F0180935E0180915E0190915D
S11301805F01892B29F47894089522230CF4789440
S113019008958091650190E09093680180936701D0
S11301A0609167017091680180E090E00E944D06C3
S11301B02DEC3CEC4CE85FE30E94B30620E030E019
S11301C048EC52E40E94B30620E030E040E85AE3F1
S11301D00E94B3060E941E06E0916001F091610145
S11301E0CB0109950895809169018F5F809369011E
S11301F0833330F089EC90E00E94B80210926901D8
S1130200089590936101809360010895E2E6F1E01E
S113021081E08083138283EF90E092838183CF0116
S11302200E94AD010895CF93DF938233910580F04E
S1130230863E910508F440C0883621E09207F8F123
S1130240873122E09207F0F1883F9240D8F43DC014
S11302508091000190910101892B09F43FC0C0E015
S1130260D0E0D0930101C0930001FE01EE0FFF1F07
S1130270EE0FFF1FE659FE4F0280F381E02D099532
S1130280259764F180910001909101018F3F2FEF38
S1130290920721F1880F991F880F991FFC01E659D5
S11302A0FE4F0190F081E02D09958FEF9FEF909321
S11302B001018093000112C0C1E0D0E008C0C2E097
S11302C0D0E005C0C3E0D0E002C0C4E0D0E080913B
S11302D0000190910101C817D90719F6DF91CF9158
S11302E008956530710548F4660F771F660F771F10
S11302F0FB01E659FE4F91838083089565307105B3
S113030048F4660F771F660F771FFB01E659FE4F0F
S1130310938382830895EEE7F1E01082138283E1F0
S113032091E092838183CF010E94AD010895809171
S1130330AB0190E0FC01EE0FFF1FEE0FFF1F8E0FCD
S11303409F1FFC01E457FE4F0180F281E02D809154
S113035084019091850109950895FC01808186307E
S113036008F058C08091AD01811134C0ACE7B0E011
S11303708C918F7D8C938C9180648C938C91807FF5
S11303808C93AAE7B0E08C9180688C938C918F7DDC
S11303908C938C9186608C938C9188608C937894E8
S11303A08C9180648C93A6E8B1E01C9211961C9207
S11303B0119712961C92129713961C9213971496E7
S11303C01C92149715961C9286E08093830181E019
S11303D08093AD01208130E0D901AA57BE4F8C91A2
S11303E08823D9F0D901AA57BE4F81E08C9380812C
S11303F090E0DC01AA0FBB1FAA0FBB1FA80FB91FF7
S1130400A457BE4F85E001900D928A95E1F781E0F3
S113041090E0089580E090E0089580E090E00895F1
S11304201F920F920FB60F9211242F933F934F9365
S11304305F936F937F938F939F93AF93BF93EF9348
S1130440FF938091AA01843608F440C0809178001B
S11304509091790090938501809384018091AC01FF
S11304608093AB0187E991E00E94B80281E0809318
S113047083012091AC0130E0B9016F5F7F4FFB0134
S1130480E670FF27EA57FE4F8081813041F50BC0AB
S1130490B901F901E670FF27EA57FE4F4081413068
S11304A051F490938301CB0166E070E00E942C0923
S11304B08093AC0108C09F5F2F5F3F4F973041F797
S11304C087E0809383011092AA0103C08F5F809319
S11304D0AA01EAE7F0E080818064808304C02E5F93
S11304E03F4F92E0D5CFFF91EF91BF91AF919F9194
S11304F08F917F916F915F914F913F912F910F90C9
S11305000FBE0F901F9018951092B0011092AF017A
S11305101092AE0181E008950E9487008091AE019F
S1130520882311F10E94AB00E091B001F0E0EE0FDE
S1130530FF1FEF54FE4F0190F081E02D09950E94BA
S113054087008091B00190E001968F709078992394
S113055024F40197806F9F6F01968093B00180917E
S1130560AE0181508093AE010E94AB0081E00895FA
S1130570CF93DF93EC010E9487002091AE012031DC
S1130580D0F48091AF0190E0FC01EE0FFF1FEF5417
S1130590FE4FD183C08301968F709078992324F401
S11305A00197806F9F6F01968093AF012F5F209317
S11305B0AE01C1E001C0C0E00E94AB008C2FDF910E
S11305C0CF91089580E090E008950895CF93DF934C
S11305D0EC0160E08E810E94390881E090E00E9485
S11305E0920761E08E810E94390881E090E00E94C8
S11305F0920760E08E810E94390884E690E00E94B0
S11306009207DF91CF910895CF92DF92EF92FF92FC
S11306100F931F93CF93DF936C018C01095F1F4FDE
S1130620C0E0D0E0E62EF12CB7010C2E02C0759587
S113063067950A94E2F76170F80181918F010E9435
S113064039082196C430D10579F7C6010E94E60223
S1130650DF91CF911F910F91FF90EF90DF90CF909A
S11306600895CF92DF92EF92FF920F931F93CF934F
S1130670DF936C018C01095F1F4FC0E0D0E0E62ED0
S1130680F12CB7010C2E02C0759567950A94E2F718
S11306906170F80181918F010E9439082196C83058
S11306A0D10579F7C6010E94E602DF91CF911F912F
S11306B00F91FF90EF90DF90CF9008951F93CF9309
S11306C0DF93EC01162F642F8C810E9439088D81F1
S11306D08F3F19F060E00E9439088F8584FF05C0C0
S11306E0612FCE010E94310311C0612F70E0759516
S11306F06795759567957595679575956795CE0119
S11307000E940403612FCE010E940403DF91CF9164
S11307101F91089540E061E00E945E0380ED97E040
S11307200E9492070895FC01443008F043E0838955
S1130730481710F04FEF480FDF01A40FB11D549676
S11307409C91690F606840E0CF010E945E030895A8
S1130750FC016089262F2460208B6C6040E00E949D
S11307605E030895AF92BF92CF92DF92EF92FF9211
S11307700F931F93CF93DF93EC01423018F08F85D2
S113078088608F874B8B1C8A80E48D8B6E8B70E026
S1130790605C7F4F6F8B222329F0413019F48F85E1
S11307A084608F8761E08C810E9400088D818F3F77
S11307B019F061E00E94000861E08E810E94000847
S11307C07E0187E0E80EF11C00E010E06894AA24A2
S11307D0A3F8B12C6894CC24C2F8D12C8F8584FD65
S11307E003C08C2D9D2D02C08A2D9B2D081719073F
S11307F04CF461E0F70181917F010E9400080F5FD2
S11308001F4FECCF80E593EC0E94920760E08C814F
S11308100E94390860E08E810E9439088D818F3FE3
S113082019F060E00E9439086F8564FD1DC063E023
S1130830CE010E94040384E991E10E94920763E0DF
S1130840CE010E94040384E991E10E94920763E0CF
S1130850CE010E94040386E990E00E94920762E0C0
S1130860CE010E94040319C0606240E0CE010E94E0
S11308705E0384E991E10E9492076F85606240E023
S1130880CE010E945E0386E990E00E9492076F8584
S1130890606240E0CE010E945E036F85606240E0CA
S11308A0CE010E945E0384E0888BCE010E94A803DF
S11308B0CE010E948A0382E0898B40E066E0CE018B
S11308C00E945E03DF91CF911F910F91FF90EF90F3
S11308D0DF90CF90BF90AF900895CF92EF920F9397
S11308E0FC011382128287E091E091838083648308
S11308F08FEF8583468327830087E186C28613862C
S1130900148615861686178620E041E060E1CF0143
S11309100E94B2030F91EF90CF90089541E00E949E
S11309205E0381E090E00895089508950895089580
S1130930089508952091E90130E0F901EE0FFF1FB9
S1130940E251FE4F082E000C990B91838083C9015C
S1130950019664E670E00E942C098093E90180917D
S1130960EA01853618F48F5F8093EA010895809335
S1130970B6029093B7020E949A0408958091B60239
S11309808093ED0108951092EB016091EA016623D2
S1130990E1F04091E901442389F0EEEEF1E050E00A
S11309A0440F551F42515E4F80E090E021913191F8
S11309B0820F931FE417F507C9F702C080E090E0A7
S11309C070E00E942C096093EB0108956091E901A5
S11309D06623B1F04091EC01EEEEF1E070E0660FB9
S11309E0771F62517E4F81919191242F30E0281717
S11309F0390708F4482FE617F707A9F74093EC01E5
S1130A0008956091E9016623B1F040910201EEEE90
S1130A10F1E070E0660F771F62517E4F81919191F2
S1130A20242F30E08217930708F4482FE617F707BE
S1130A30A9F740930201089540E060E081ED91E060
S1130A400E9493036FE071E081ED91E00E94BD0884
S1130A5041E060E081ED91E00E9493034AE050E0C0
S1130A606091ED0181ED91E00E94250908950E94B5
S1130A70BE040E941C05089540E060E081ED91E011
S1130A800E9493036BE171E081ED91E00E94BD0847
S1130A9041E060E081ED91E00E9493034AE050E080
S1130AA06091EB0181ED91E00E94250908950E9477
S1130AB0C3040E943C05089540E060E081ED91E0AC
S1130AC00E94930369E271E081ED91E00E94BD0808
S1130AD041E060E081ED91E00E9493034AE050E040
S1130AE06091EC0181ED91E00E94250908950E9436
S1130AF0E6040E945C05089540E060E081ED91E029
S1130B000E94930365E371E081ED91E00E94BD08CA
S1130B1041E060E081ED91E00E9493034AE050E0FF
S1130B206091020181ED91E00E94250908950E94DF
S1130B3001050E947C0508950E94840240E060E063
S1130B4081ED91E00E94930361E471E081ED91E015
S1130B500E94BD0861E070E087E795E00E947101A2
S1130B6061E070E085E994E00E947E0162E070E05B
S1130B7087E995E00E94710162E070E086E994E003
S1130B800E947E0163E070E087E395E00E947101BA
S1130B9063E070E087E994E00E947E0160E070E029
S1130BA087E595E00E94710160E070E088E994E0D7
S1130BB00E947E0164E070E084E994E00E94710187
S1130BC064E070E089E994E00E947E0187EB94E0A0
S1130BD00E9401010E948B010E940601EEEEF1E0E9
S1130BE086EB92E011921192E817F907D9F740E0E9
S1130BF060E081ED91E00E94930360E571E081ED96
S1130C0091E00E94BD0808950E948C020895CF923D
S1130C10EF920F930F2EF7E0CF2EF02D0F2EF6E06C
S1130C20EF2EF02D05E024E049E068E081ED91E04D
S1130C300E946D040F91EF90CF9008950E94920648
S1130C4088F09F5798F0B92F9927B751B0F0E1F089
S1130C50660F771F881F991F1AF0BA95C9F714C039
S1130C60B13091F00E94AC06B1E008950C94AC064A
S1130C70672F782F8827B85F39F0B93FCCF3869572
S1130C8077956795B395D9F73EF4909580957095CF
S1130C9061957F4F8F4F9F4F0895E89409C097FB4C
S1130CA03EF490958095709561957F4F8F4F9F4F3F
S1130CB09923A9F0F92F96E9BB279395F695879583
S1130CC077956795B795F111F8CFFAF4BB0F11F446
S1130CD060FF1BC06F5F7F4F8F4F9F4F16C08823ED
S1130CE011F096E911C0772321F09EE8872F762F23
S1130CF005C0662371F096E8862F70E060E02AF064
S1130D009A95660F771F881FDAF7880F969587954F
S1130D1097F9089557FD9058440F551F59F05F3FB8
S1130D2071F04795880F97FB991F61F09F3F79F009
S1130D3087950895121613061406551FF2CF46958B
S1130D40F1DF08C0161617061806991FF1CF86950D
S1130D507105610508940895E894BB2766277727F1
S1130D60CB0197F908950E94C6060C9437070E9498
S1130D70290738F00E94300720F0952311F00C94D5
S1130D8020070C94260711240C94AD060E948A06B1
S1130D9070F3959FC1F3950F50E0551F629FF001CA
S1130DA0729FBB27F00DB11D639FAA27F00DB11DE3
S1130DB0AA1F649F6627B00DA11D661F829F22276C
S1130DC0B00DA11D621F739FB00DA11D621F839FF3
S1130DD0A00D611D221F749F3327A00D611D231FC9
S1130DE0849F600D211D822F762F6A2F11249F5717
S1130DF050409AF0F1F088234AF0EE0FFF1FBB1F1A
S1130E00661F771F881F91505040A9F79E3F5105D8
S1130E1080F00C9420070C94AD065F3FE4F3983EF9
S1130E20D4F3869577956795B795F795E7959F5F82
S1130E30C1F7FE2B880F911D9695879597F9089514
S1130E4097F99F6780E870E060E008959FEF80EC79
S1130E50089500240A94161617061806090608951C
S1130E6000240A9412161306140605060895092E82
S1130E700394000C11F4882352F0BB0F40F4BF2BF1
S1130E8011F460FF04C06F5F7F4F8F4F9F4F089531
S1130E901F920F920FB60F9211242F933F938F93AB
S1130EA09F93AF93BF938091B9029091BA02A0919E
S1130EB0BB02B091BC023091B80223E0230F2D375E
S1130EC020F40196A11DB11D05C026E8230F02964A
S1130ED0A11DB11D2093B8028093B9029093BA0268
S1130EE0A093BB02B093BC028091BD029091BE025C
S1130EF0A091BF02B091C0020196A11DB11D8093C3
S1130F00BD029093BE02A093BF02B093C002BF91F2
S1130F10AF919F918F913F912F910F900FBE0F90A2
S1130F201F901895019739F0880F991F880F991F02
S1130F3002970197F1F70895789484B5826084BD8F
S1130F4084B5816084BD85B5826085BD85B58160C9
S1130F5085BDEEE6F0E0808181608083E1E8F0E029
S1130F601082808182608083808181608083E0E858
S1130F70F0E0808181608083E1EBF0E08081846037
S1130F808083E0EBF0E0808181608083EAE7F0E039
S1130F90808184608083808182608083808181609D
S1130FA080838081806880831092C100089583309B
S1130FB081F028F4813099F08230A1F008958730CF
S1130FC0A9F08830B9F08430D1F4809180008F7D0D
S1130FD003C0809180008F7780938000089584B54A
S1130FE08F7702C084B58F7D84BD08958091B00051
S1130FF08F7703C08091B0008F7D8093B0000895F7
S1131000CF93DF9390E0FC01E458FF4F2491FC015F
S1131010E057FF4F8491882349F190E0880F991F8E
S1131020FC01E255FF4FA591B4918C559F4FFC01F3
S1131030C591D4919FB7611108C0F8948C91209503
S113104082238C93888182230AC0623051F4F894FD
S11310508C91322F309583238C938881822B8883C3
S113106004C0F8948C91822B8C939FBFDF91CF9115
S113107008950F931F93CF93DF931F92CDB7DEB7DD
S1131080282F30E0F901E859FF4F8491F901E45821
S1131090FF4F1491F901E057FF4F04910023C9F069
S11310A0882321F069830E94D7076981E02FF0E04B
S11310B0EE0FFF1FEC55FF4FA591B4919FB7F89425
S11310C08C91611103C01095812301C0812B8C93F5
S11310D09FBF0F90DF91CF911F910F9108950895B5
S11310E00E949C070E946F080E949C05C0E0D0E00B
S11310F00E9404062097E1F30E940000F9CFCF92EA
S1131100DF92EF92FF920F931F93CF93DF936C01C3
S11311107A01EB01E60EF71E00E010E0CE15DF05C4
S113112061F06991D601ED91FC910190F081E02D7F
S1131130C6010995080F191FF1CFC801DF91CF919E
S11311401F910F91FF90EF90DF90CF90089561155C
S1131150710581F0DB010D900020E9F7AD014150EC
S11311605109461B570BDC01ED91FC910280F38180
S1131170E02D099480E090E008950C94A7088F92E4
S11311809F92AF92BF92CF92DF92EF92FF920F9312
S11311901F93CF93DF93CDB7DEB7A1970FB6F89423
S11311A0DEBF0FBECDBF7C01C42EE52FCB01D22EF6
S11311B019A221E02D1510F02AE0D22E8E010F5D28
S11311C01F4F8D2C912CA12CB12C6C2D7E2FA501A1
S11311D094010E9440098C2DD29E80191124015043
S11311E011098A3014F4805D01C0895CF8018083A0
S11311F0211531054105510521F0C22EE32FCA0105
S1131200E4CFB801C7010E94A708A1960FB6F894CD
S1131210DEBF0FBECDBFDF91CF911F910F91FF9025
S1131220EF90DF90CF90BF90AF909F908F900895F4
S11312302115310541F4DC01ED91FC910190F0811F
S1131240E02D642F09940C94BF089A01462F50E0B6
S113125060E070E00C94180997FB072E16F40094D4
S113126007D077FD09D00E94620907FC05D03EF43F
S1131270909581959F4F0895709561957F4F08953E
S1131280A1E21A2EAA1BBB1BFD010DC0AA1FBB1F86
S1131290EE1FFF1FA217B307E407F50720F0A21BF8
S11312A0B30BE40BF50B661F771F881F991F1A9465
S11312B069F760957095809590959B01AC01BD018F
S11312C0CF010895AA1BBB1B51E107C0AA1FBB1F76
S11312D0A617B70710F0A61BB70B881F991F5A95BE
S11312E0A9F780959095BC01CD010895EE0FFF1FDD
S10F12F00590F491E02D0994F894FFCFD0
S11312FCFFFFC8000000008E047F08E202E50254E0
S113130C656D702041637475616C0054656D70205B
S113131C50726F6D6564696F0054656D70204D611A
S113132C78696D610054656D70204D696E696D61ED
S113133C0054612020202020202020202020200068
S111134C546520202020202020202020200076
S9030000FC
