S01700004763634170706C69636174696F6E312E737265635B
S11300000C9434000C9451000C9451000C94510045
S11300100C9451000C9451000C9451000C94510018
S11300200C9451000C9451000C9451000C94510008
S11300300C9451000C9451000C9451000C945100F8
S11300400C946A010C9451000C9451000C945100CE
S11300500C9451000C9406010C9451000C94510022
S11300600C9451000C94510011241FBECFEFD8E022
S1130070DEBFCDBF11E0A0E0B1E0ECE6F3E002C0EA
S113008005900D92A230B107D9F721E0A2E0B1E0CA
S113009001C01D92A634B207E1F70E9469010C94D5
S11300A0B4010C9400002FB7F89480910201909150
S11300B00301892B19F422239CF408C080910201C6
S11300C090910301892B91F0222384F08091020105
S11300D09091030101969093030180930201089586
S11300E08091020190910301892B81F708952FB724
S11300F0F8948091020190910301181619068CF46A
S113010080910201909103010197909303018093E0
S113011002018091020190910301892B29F47894C2
S1130120089522230CF478940895CF93DF9380915B
S1130130180190911901C29700F1809118019091D2
S11301401901863E910508F44CC0809118019091E4
S113015019018836914008F447C0809118019091A4
S113016019018731924008F442C08091180190919E
S11301701901883F9240D8F43DC0809100019091CC
S11301800101892B09F43FC0C0E0D0E0D093010104
S1130190C0930001FE01EE0FFF1FEE0FFF1FEC5F87
S11301A0FE4F0280F381E02D0995259764F180913B
S11301B00001909101018F3F2FEF920721F1880FE9
S11301C0991F880F991FFC01EC5FFE4F0190F0818D
S11301D0E02D09958FEF9FEF90930101809300012B
S11301E012C0C1E0D0E008C0C2E0D0E005C0C3E066
S11301F0D0E002C0C4E0D0E0809100019091010100
S1130200C817D90719F6DF91CF9108951F920F925D
S11302100FB60F9211242F933F934F935F936F93D5
S11302207F938F939F93AF93BF93EF93FF938091AB
S11302301A018F5F80931A01833380F080917800D4
S11302402091790090E0922B9093190180931801EA
S113025085E990E00E943F0110921A01FF91EF910D
S1130260BF91AF919F918F917F916F915F914F91CA
S11302703F912F910F900FBE0F901F901895CF9321
S1130280DF93EC010E94530020911B012031D0F434
S113029080911C0190E0FC01EE0FFF1FE35EFE4F16
S11302A0D183C08301968F709078992324F40197A9
S11302B0806F9F6F019680931C012F5F20931B0119
S11302C0C1E001C0C0E00E9477008C2FDF91CF9184
S11302D00895FFCF1F920F920FB60F9211242F9300
S11302E03F938F939F93AF93BF9380913E019091DF
S11302F03F01A0914001B091410130913D0123E0C3
S1130300230F2D3720F40196A11DB11D05C026E849
S1130310230F0296A11DB11D20933D0180933E0140
S113032090933F01A0934001B09341018091420119
S113033090914301A0914401B09145010196A11D02
S1130340B11D8093420190934301A0934401B09363
S11303504501BF91AF919F918F913F912F910F9044
S10F03600FBE0F901F901895F894FFCF6B
S105036CFFFF8D
S9030000FC
